:400000000010002011000000490200004902000008B500F027FC00F019F9C04638B51D4C12232360182000F095FB802252001A4B1A608023DB051949196019490A601949EC
:40004000196019490A60194A1A60CF210902184A1160184A1A60184A184B1A600025184B1D604222174B1A60013A174B1A600232164B1A600B20164900F0B6FA0B2000F0C5
:40008000A7FA144B1D60002000F0F4FB1123236038BDC046300010400003004040FF00800803004042FF00800403004041FF00800C03004043FF0080200000803000034059
:4000C000280003403001004020010040000100400D0900000C02064008B572B6164A174B1A600822164B1A609132164B1A600022154B1A600423154A13601549154A116031
:40010000154A1360C0225203144B1A608122144B1A607B3A134B1A607A32134B1A600223124A13603121124A1160124A1360FFF775FF00F0E3F808BDEE070000000002403D
:40014000000202400003024004013F40000004403602000008000440180004400801044000020440080204401802044000030440080304401803044010B5064C2378002B3D
:4001800007D1054B002B02D0044800E000BF0123237010BDC8000020000000003C10000008B5084B002B03D00748084900E000BF07480368002B00D108BD064B002BFBD068
:4001C0009847F9E7000000003C100000CC000020B00000200000000030B583B062B600F043F900F01DF900F02FFD00F04DFC012000F05EFC0028FAD100F076FCC443E4B224
:40020000201C00F0BDF801AD201C642100F06EFD30302870201C0A2100F068FDC0B20A2100F0EAFD30316970201C0A2100F0E4FD3031A970281C00F099F90D2000F024F9FF
:400240000A2000F021F9D0E7FEE7C04670B50F4E0F4D13E029686B68AC68002202E001C901C30432A242FAD1E868002202E0002102C304328242FAD11035013E002EE9D17D
:4002800000F0B6FEFFF7A8FFFEE7C04601000000B410000008B500230AE0032B03D89A000949505800E009489900094A88500133282BF2D9FFF710FF0022064B1A6080220B
:4002C0009205054B1A6008BD000000004902000000000020A800002008ED00E0064B1B68002803D080221206134301E05B005B08014A13607047C04680033A4008B53022CB
:400300000E4B1A6080231B060D4A1360802149040C4A11600C4A1360802212030B4B1A600B4A0C4B1A60F1220B4B1A6000220B4B1A600120FFF7D2FF08BDC0460021024046
:40034000000038401000384000003A4000033A400100008000023F4008023F40000E3F400004000C014B18607047C046080201400004000C014B18607047C04614020140AA
:400380000004000C014B18607047C0460C02014038B5041C0D1C00F000F9AC40024B1C6000F0FFF838BDC0460800014008B500F0F4F8064A116810230B43136000F0F1F82F
:4003C00010201821FFF7E4FF08BDC04600000140014B18607047C0463802014010B50D4C8023DB042360236823600020FFF7B8FF236823600C22084B1A600120FFF7E8FFAE
:400400003122064B1A60FF20FFF7B2FF4020FFF7B7FF10BD00020140240201402802014008B5064B1B78002B04D1FFF7D7FF0122024B1A70FFF7BAFF08BDC046E400002005
:4004400008B500F081F808BD08B500F02BF808BD08B5044A1368802109060B431360FFF7EFFF08BD0000074008B5064B1B78002B04D1FFF7E9FF0122024B1A70FFF7E8FFBF
:4004800008BDC046E6000020044B1B681F221340082BF9D0024B18607047C046080207404002074010B5154A154B1A600023154A13600121144A1160144A15480260072481
:4004C00014480460144803601448016014490A60144A13600421144A1160144A1360144A1360144A1360144A1360144A1360144A13601268134B1A8010BDC0460B000002FC
:400500000000074040000740480007400700008000030740040307401003074044000740000207400402074050000740880E0740C80E0740480F0740080F0740C80F074019
:40054000880F0740E800002005490B68F0229343603A13430B60034B1A88034B1A60704700030240E8000020880F074038B5051C002402E0FFF788FF0134285D0028F9D1BA
:4005800038BDC046000000000230800803D001300238FCD1C046C0467047EFF3108072B6704780F310887047024A1168024B0B401360704700000640FFFFFFBF034B18684E
:4005C0008023DB05184000D001207047000006401F2318401E3B8340181C014B1860704700E100E001BE704738B5041C0D1C182802D90020FFF7F6FFA400034B9C466444BE
:400600002068256038BDC0464000002070B5041C0E1E032E02D90020FFF7E4FF182C02D90020FFF7DFFF03252540ED000635FFF7B4FFA408A400074B9C466444236803228F
:40064000AA409343AE40351C1D432560FFF7A9FF70BDC04600E400E010B5041C06E0084B1868FFF791FF074B9C46644480231B029C42F4D8024B58686043FFF785FF10BDA0
:40068000B40000200080FFFF30B583B000F0E0F8002848D0FFF781FF041C244B1B6807221A409200131C1833214A12681207920FD3401A1C1F4B19681F4B19401F4B53431B
:4006C0008020C00184466344DB0B013B5B055B0D0B43A02149031943192A02D8184A13430BE0184BD31818781A3A174B9B5CC318FF2B00D9FF239B050B430E4A1360134D23
:400700002B680193302000F0C7FA114A13688021C9050B4313601420FFF79EFF019B2B60201CFFF73EFF03B030BDC046080F0340280003400800064000F800C040420F002C
:400740000000D43FCDF1FF0F401000003000104000000640F0B583B0041E182C0BD01C2809D0202807D0242805D0282803D02C2801D0302849D1FFF710FF0190FFF71EFFAB
:40078000002803D0FFF710FF012600E00026214A136807218B4313601F4BE3181B78DBB21E4A13601E4A13688B4313601D4803687F229343191C1C4BE3181B7813400B4327
:4007C00003603220FFF7E0FE182C16D9114F3B680725AB431A1C231C1C3B9B082B4013433B603220FFF7D0FE3A68AA43231C183B9B082C1C1C4014433C60012E01D1FFF7ED
:4008000043FF0198FFF7CDFE02E00020FFF7EAFE03B0F0BD080F0340CDF1FF0F0C0F0340100F0340180F0340B4F1FF0F08B5034B1B7A5843FFF7A8FE08BDC046B400002063
:40084000024B1868800F80077047C0460C020640034B1B68002B01DA012000E00020704700000640014A024B1A6070476588EDAC3800034010B5041CFFF7E2FFA0421AD03D
:40088000144A136803218B431360134B1B689B0F01D17C2001E086204000FFF7C7FFFFF77CFE0D4A13689B009B08A40FA4071C431460FFF776FE074B1B6803229343064A43
:4008C0001268920F01D1023200E001221343014A136010BD140206400C02064010B5041CFFF75BFE064B221C1A4006490C68064B234013430B600B68FFF753FE10BDC04661
:400900000404040010020640FBFBFBFF10B5244B1B685B0715D5234B1B685B070ED5224B5969042001401F4C22688A4322605A6982435A619B68002B00D098470420FFF718
:40094000CDFF174B1B685B0518D5164B1B685B0510D5154B59698022D2001140114802688A4302605969114A0A405A61DB68002B00D098478020C000FFF7B0FF084B1B685D
:400980005B030CD5074B1B685B0304D5064B1B69002B00D098478020C002FFF79FFF10BD10020640C4000020EC000020FFFBFFFF10B5041C808E002100F05EF9A268254B65
:4009C0001B68002B02DA80235B0300E000231343214A11680B431360204BE2681A60204BA2691A601F4BE2691A601F4B22691A601E4B62691A601E4A002111601D4B196028
:400A0000A16A1160626A1A6001221B4B1A601B4B1B68EF32A1680A40402A01D0002A04D1174A13400122134304E001229343802292051343114A1360002307E09A001149F5
:400A40008C466244802189001160013362689A42F4D810BD80033A4000003A4004003A4018003A401C003A4010003A4014003A4028023A4038023A4018023A4030003A4025
:400A8000FFFFFFDF80003A40074B1B685B0306D5054A1368802149020B43136002E00122024B1A607047C04604003A4024003A40011C431E012B11D8094A0A4B1B68012057
:400AC0001840013A002803D18B0701D5002AF4D1002804D00122034B1A6000E000207047FFFFFF0310023A4010B5041E02D00020FFF778FD002C07D1A400054B9C46644420
:400B000020680004000C00E0002000B210BDC04680013A40F0B5474680B4384B1B7A002B41D068E0EB005B1BDB00354AD318DB68DA0702D58020C00001E0802040005B0777
:400B400011D5EB005B1BDB002D4AD3189B68E02212011340934206D143085B429BB262002849535203E063000021264A9952264B5843234B9846EF007E1BF6004644F16AB0
:400B80004018490000F042F900B2A3001F4A98507B1BDB0042469A587368D318A34200D10135013401E000250024002CBAD00F200321FFF72BFD0F201549FFF715FD0023E8
:400BC0000AE0DA00D21AD2000D498A18116A9A000A48821851600133002BF2D0074B5B7A002B08D1054C013363720548FFF7E0FE6268084B1A6004BC9046F0BD0401002003
:400C0000581000001401002010270000100100206D0C000020003A4008B5094B1B68002B0CDB084B1B68002BFBDB054A1368802109060B4313600A20FFF7F8FD08BDC04604
:400C400000003A40A0023A4008B5074B1B7ADB0706D4FFF75FFF044A117A01230B431372FFF7DAFF08BDC04604010020014B1A681A60704710023A4010B5064A1368072455
:400C8000234000021843CB00FF2119400143116010BDC0460803004038B5041CFFF77DFC051C102C05D8104A136803218B43136016E0202C07D80C490B6803229343023A4D
:400CC00013430B600CE0302C07D807490B6803229343013A13430B6002E00020FFF782FC281CFFF75EFC38BD30001040002243088B4274D303098B425FD3030A8B4244D356
:400D0000030B8B4228D3030C8B420DD3FF22090212BA030C8B4202D31212090265D0030B8B4219D300E0090AC30B8B4201D3CB03C01A5241830B8B4201D38B03C01A524186
:400D4000430B8B4201D34B03C01A5241030B8B4201D30B03C01A5241C30A8B4201D3CB02C01A5241830A8B4201D38B02C01A5241430A8B4201D34B02C01A5241030A8B424D
:400D800001D30B02C01A5241CDD2C3098B4201D3CB01C01A524183098B4201D38B01C01A524143098B4201D34B01C01A524103098B4201D30B01C01A5241C3088B4201D342
:400DC000CB00C01A524183088B4201D38B00C01A524143088B4201D34B00C01A5241411A00D20146524110467047FFE701B5002000F0FCF802BDC0460029F7D003B5FFF7DC
:400E000075FF0EBC4243891A1847C04603460B437FD4002243088B4274D303098B425FD3030A8B4244D3030B8B4228D3030C8B420DD3FF22090212BA030C8B4202D3121221
:400E4000090265D0030B8B4219D300E0090AC30B8B4201D3CB03C01A5241830B8B4201D38B03C01A5241430B8B4201D34B03C01A5241030B8B4201D30B03C01A5241C30A03
:400E80008B4201D3CB02C01A5241830A8B4201D38B02C01A5241430A8B4201D34B02C01A5241030A8B4201D30B02C01A5241CDD2C3098B4201D3CB01C01A524183098B42C1
:400EC00001D38B01C01A524143098B4201D34B01C01A524103098B4201D30B01C01A5241C3088B4201D3CB00C01A524183088B4201D38B00C01A524143088B4201D34B005A
:400F0000C01A5241411A00D201465241104670475DE0CA0F00D04942031000D34042534000229C4603098B422DD3030A8B4212D3FC22890112BA030A8B420CD389019211CE
:400F40008B4208D3890192118B4204D389013AD0921100E08909C3098B4201D3CB01C01A524183098B4201D38B01C01A524143098B4201D34B01C01A524103098B4201D330
:400F80000B01C01A5241C3088B4201D3CB00C01A524183088B4201D38B00C01A5241D9D243088B4201D34B00C01A5241411A00D20146634652415B10104601D34042002BAF
:400FC00000D54942704763465B1000D3404201B5002000F00BF802BD0029F8D003B5FFF715FF0EBC4243891A1847C0467047C0460E4B70B500251E1C0D4CE41AA410A54253
:4010000004D0AB00F35898470135F8E700F040F8084B00251E1C084CE41AA410A54204D0AB00F35898470135F8E770BD9C1000009C1000009C100000A41000000000000088
:40104000EEDBC9B9AA9B8E82766B60564D443B332C241D17100A04000000000001000000C00E2050A80004906E000200020002000002000E00000000010000000000000098
:4010800000000000B00400000100000001000000F8B5C046F8BC08BC9E467047A101000095020000F8B5C046F8BC08BC9E46704779010000C8100000B0000020180000007B
:4010C0005000000000000000000000000000E02EC05D00001800000000366E01040404000000000000000000000000000000000000000000000000000000000000000000AC
:4011000000000000000000000000000000000000000000000000000000000000000000000000000000000000000000000000000000000000000000000000000000000000AF
:40114000000000000000000000000000000000000000000000000000000000000000000000000000000000000000000000000000000000000000000000000000000000006F
:40118000000000000000000000000000000000000000000000000000000000000000000000000000000000000000000000000000000000000000000000000000000000002F
:4011C00000000000000000000000000000000000000000000000000000000000000000000000000000000000000000000000000000000000000000000000000000000000EF
:0200000490303A
:02000000352C9D
:0200000490402A
:200000000000000000000000000000000000000000000000000000000000000000000000E0
:0200000490501A
:0C00000000021C0011AC00011C0546D8D9
:0200000490600A
:0100000001FE
:00000001FF