:400000000010002011000000FD050000FD05000008B500F083FE00F00BFBC04638B5294C12232360182000F0F1FD80225200264B1A608023DB052549196025490A60254992
:400040001960254825490860254919602548264908602649196026490A60264A1A60FE210902254A1160254A1A60F0210901244A1160244A1A60244A244B1A600025244B2E
:400080001D604322234B1A607D32234B1A607B3A224B1A60033A224B1A60023A214B1A600432214B1A600B20204900F0F9FC0B2000F0D6FC1E4B1D60002000F037FE11231C
:4000C000236038BD300010400403004041FF00800C03004043FF008000BFD40100050040C0FF008000BF5D001403004045FF00800803004042FF00800003004040FF008093
:400100001003004044FF0080200000803000034028000340300100401801004014010040100100400C01004004010040C50D00000C02064008B572B61B4A1C4B1A600822AE
:400140001B4B1A6000221B4B1A6024231A4A13601A491B4A11601B4A136085331A4A1360C3214903194A1160194A1360223B194A1360C0214903184A1160184A1360863B3C
:40018000174A1360174A1360174A13600622174B1A600423164A1360164A1360FFF73EFF00F09EFA08BDC046EE079900000002400004024004013F40000004403610030045
:4001C000080004401800044000010440080104401801044000020440080204401802044000030440180304400004044008040440000504401805044010B5064C2378002BB1
:4002000007D1054B002B02D0044800E000BF0123237010BD3801002000000000E44B000008B5084B002B03D00748084900E000BF07480368002B00D108BD064B002BFBD093
:400240009847F9E700000000E44B00003C010020B00000200000000008B5044A136801331360012001F0DAFF08BDC0463802002038B50024002514E000F076FE012000F087
:4002800087FE0028FAD1023000F09EFE022000F09BFE03F02DF8011C281C02F0A5FA051C0134132CE8DD281C024902F019FC02F0FFFF38BD0000A04108B501F045FF002289
:4002C000014B1A6008BDC0463802002008B5FFF7F3FF002000F0A8FA034A1368DB431360012001F02BFF08BDCC01002008B500F031FF00F039FE00F00BFB00F0E5FA0E4856
:4003000001F0B0FE0D4801F0B7FF01F0CDFD01F0F1FD01F0E7FD01F093FD01F06DFE00F055FF012000F064FA012000F055FA012000F046FA08BDC046CD020000590200007D
:40034000F0B587B062B6FFF7D1FFFFF791FF02F0CFFF02900023974A1360974A1360974A136000230393002500F0FEFD012000F00FFE0028FAD1023000F026FE041C8F4FAE
:400380003E68029802F094FF001BB2008C4BD05001363E60192E01D100223A60002200240AE0874993005B580132900041585B1AD9175B184B40E418172AF2DD002D07D1F4
:4003C000C823DB009C4203DD01F018FF013542E0012D0ED1784B1B68282B0ADDDC2B00DD0135C823DB009C4235DDFFF765FF002531E0022D0ED1C823DB009C4200DD013567
:400400006D4B1A68D723DB009A4224DDFFF754FF002520E0032D1ED1674B1B68282B1ADDDC2B11DD634E33685A4253413360FFF743FF3368002B03D001F070FE002503E088
:40044000002000F0F1F90025C823DB009C4202DDFFF732FF0025574B1B68002B2ED0002000F0B2FD061C012000F0AEFD071C039803F084FD534A544B03F0AAFA009001917C
:40048000FF20C01B03F03EFD504A514B03F0A0FA021C0B1C0098019902F072FF03F0C2FD039002F005FF00F0BFF9331CFA33FA225200934202D9002001F0E2FD00F09EFF7D
:4004C000002844D1434B188D434F38805E8EFE80424B9C46604402F00BFF414902F038FC00903E4BF01802F003FF011C009802F0F7FA02F061F980B278803A4B9C466044EB
:4005000000B2642358431F2102F064F8364B9C46604483B2020409D41A1C1BB2FA2189008B4201DD314B1A8893B200E000232A4EB38000F09BFFB288AF239B009A4203D9EE
:40054000002000F055F902E0012000F051F9224B9A88274E04A8311C03F044FF04A800F04FFA244F381C00F04BFA04A8311C221C03F038FF04A800F043FA381C00F040FA14
:400580000D4B1A6804A8311C03F02CFF04A800F037FA381C00F034FAFA2252006A4304A8311C03F01FFF04A800F02AFA124800F027FAD9E6CC01002038020020340200205F
:4005C000D0010020CDCCCCCCCCCCEC3F9A9999999999B93F500200205401002000FAFFFF0080DE44F8F8FFFF26020000E84B0000EC4B0000F04B0000F44B0000FEE7C04621
:4006000008B5031C084A1068C318084A9A1A802A02DC054A136005E003F0A6FE0C2303600120404208BDC046B4000020A002002070B50F4E0F4D13E029686B68AC6800226C
:4006400002E001C901C30432A242FAD1E868002202E0002102C304328242FAD11035013E002EE9D103F086FEFFF76AFEFEE7C04601000000704E000008B500230AE0032B43
:4006800003D89A000949505800E009489900094A88500133282BF2D9FFF74CFD0022064B1A6080229205054B1A6008BD00000000FD05000000000020A800002008ED00E0D1
:4006C000064B1B68002803D080221206134301E05B005B08014A13607047C04680033A4008B530221C4B1A6003211C4B19600D311B4B196080231B061A490B601A481B499B
:4007000008601B490B601B481B4908601B481C4908601C490B601C481C4908601C481D4908601D490A60802189021C4A11601C4A13601C4B1C4A13601C4A13601C4A1D4B5D
:400740001A60F1221C4B1A6000221C4B1A600120FFF7B6FF08BDC0460021024008210240C0020C400000304004080000800030400000314004000022800031408000080118
:4007800088003140000038401000000110003840200000021800384060003840C001384000003A400100080000033A4040033A400100008000023F4004023F40000E3F409B
:4007C00004490A68BF231A4080017F3B18401043086070470001044004490A68BF231A4080017F3B18401043086070470002044004490A68EF231A400001DF3B184010437D
:4008000008607047000104400004000C014B18607047C046080101400004000C014B18607047C046140101400004000C014B18607047C0460C01014038B5041C0D1C00F08D
:40084000F4F8AC40024B1C6000F0F3F838BDC0460800014008B500F0E8F8064A116801230B43136000F0E5F801201821FFF7E4FF08BDC04600000140014B18607047C046F0
:400880003801014010B50D4C8023DB042360236823600020FFF7B8FF236823600C22084B1A600120FFF7E8FF3122064B1A60FF20FFF7B2FF0020FFF7B7FF10BD00010140FA
:4008C000240101402801014008B5064B1B78002B04D1FFF7D7FF0122024B1A70FFF7BAFF08BDC0465C01002008B500F073F808BD08B500F01DF808BD08B5044A136880213F
:4009000009060B431360FFF7EFFF08BD0000084008B5064B1B78002B04D1FFF7E9FF0122024B1A70FFF7E8FF08BDC0465E01002010B5154A154B1A600023154A1360012141
:40094000144A1160144A15480260072414480460144803601448016014490A60144A13600421144A1160144A1360144A1360144A1360144A1360144A1360144A1360126838
:40098000134B1A8010BDC0460C0000020000084040000840480008400700008000030840040308401003084044000840000208400402084050000840880E0840C80E0840CA
:4009C000480F0840080F0840C80F0840880F084060010020064A1168064B0B40902109040B431360044B1A88044B1A607047C04600000240FFFF0FFF60010020880F084071
:400A000038B5051C002402E001F044FC0134285D0028F9D138BDC0460230800803D001300238FCD1C046C0467047EFF3108072B6704780F310887047024A1168024B0B40D2
:400A40001360704700000640FFFFFFBF034B18688023DB05184000D001207047000006401F2318401E3B8340181C014B1860704700E100E01F2318401E3B8340181C014B57
:400A80001860704780E100E01F2318401E3B8340181C014B1860704780E200E001BE704738B5041C0D1C182802D90020FFF7F6FFA400034B9C4664442068256038BDC046C9
:400AC0004000002070B5041C0E1E032E02D90020FFF7E4FF182C02D90020FFF7DFFF03252540ED000635FFF7A0FFA408A400074B9C46644423680322AA409343AE40351CE8
:400B00001D432560FFF795FF70BDC04600E400E010B5041C06E0084B1868FFF77DFF074B9C46644480231B029C42F4D8024B58686043FFF771FF10BDB80000200080FFFFC0
:400B400030B583B000F0E0F8002848D0FFF76DFF041C244B1B6807221A409200131C1833214A12681207920FD3401A1C1F4B19681F4B19401F4B53438020C00184466344EA
:400B8000DB0B013B5B055B0D0B43A02149031943192A02D8184A13430BE0184BD31818781A3A174B9B5CC318FF2B00D9FF239B050B430E4A1360134D2B680193302001F0C8
:400BC00077FB114A13688021C9050B4313601420FFF79EFF019B2B60201CFFF72AFF03B030BDC046080F0340280003400800064000F800C040420F000000D43FCDF1FF0F53
:400C0000F84B00003000104000000640F0B583B0041E182C0BD01C2809D0202807D0242805D0282803D02C2801D0302849D1FFF7FCFE0190FFF70AFF002803D0FFF7FCFE10
:400C4000012600E00026214A136807218B4313601F4BE3181B78DBB21E4A13601E4A13688B4313601D4803687F229343191C1C4BE3181B7813400B4303603220FFF7CCFEED
:400C8000182C16D9114F3B680725AB431A1C231C1C3B9B082B4013433B603220FFF7BCFE3A68AA43231C183B9B082C1C1C4014433C60012E01D1FFF743FF0198FFF7B9FE3D
:400CC00002E00020FFF7EAFE03B0F0BD080F0340CDF1FF0F0C0F0340100F0340180F0340B4F1FF0F08B5034B1B7A5843FFF794FE08BDC046B8000020024B1868800F800768
:400D00007047C0460C020640034B1B68002B01DA012000E00020704700000640014A024B1A6070476588EDAC3800034010B5041CFFF7E2FFA0421AD0144A136803218B4390
:400D40001360134B1B689B0F01D17C2001E086204000FFF7C7FFFFF768FE0D4A13689B009B08A40FA4071C431460FFF762FE074B1B6803229343064A1268920F01D1023250
:400D800000E001221343014A136010BD140206400C02064010B5041CFFF747FE064B221C1A4006490C68064B234013430B600B68FFF73FFE10BDC046040404001002064081
:400DC000FBFBFBFF10B5244B1B685B0715D5234B1B685B070ED5224B5969042001401F4C22688A4322605A6982435A619B68002B00D098470420FFF7CDFF174B1B685B05A7
:400E000018D5164B1B685B0510D5154B59698022D2001140114802688A4302605969114A0A405A61DB68002B00D098478020C000FFF7B0FF084B1B685B030CD5074B1B6895
:400E40005B0304D5064B1B69002B00D098478020C002FFF79FFF10BD10020640C800002064010020FFFBFFFF10B5041C808E002100F088F9A2682B4B1B68002B02DA8023DA
:400E80005B0300E000231343274A11680B431360264BE2681A60264BA2691A60254BE2691A60254B22691A60244B62691A60244A00211160234B1960A16A1160626A1A609E
:400EC0000122214B1A60214B1B68EF32A1680A40402A01D0002A04D11D4A13400122134304E001229343802292051343174A1360002113E023685A189200164BD058164B4C
:400F00000340164812581343D20101D5144A13408A001448844662441360013163688B42E8D810BD80033A4000003A4004003A4018003A401C003A4010003A4014003A40A1
:400F400028023A4038023A4018023A4030003A40FFFFFFDF104C0000003700801C4C0000FFFEFFFF80003A40074B1B685B0306D5054A1368802149020B43136002E0012205
:400F8000024B1A607047C04604003A4024003A40011C431E012B11D8094A0A4B1B6801201840013A002803D18B0701D5002AF4D1002804D00122034B1A6000E0002070472E
:400FC000FFFFFF0310023A4010B5041E022C02D90020FFF763FD022C07D8A400044B9C46644420680004000C00E0002000B210BD80013A40F0B5474680B4424B1B7A002BB0
:4010000055D07CE0A300404A9A5893050AD5FB00DB1BDB003D49CB18DB68DB0705D58020C00004E08020400101E080204000D3051DD4FB00DB1BDB00344AD318DB685B07DC
:4010400010D5FB00DB1BDB00D3189B68E02212011340934206D143085B429BB262002C49535208E063000021294A995203E063000021274A9952274B5843244B9846FE0027
:40108000F51BED004544E96A4018490001F0A2FA00B2A300204A9850F31BDB0042469A586B68D318A34200D10137013401E000270024022CA6D90F200021FFF703FD0F20F0
:4010C0001649FFF7EDFC00230AE0DA00D21AD2000E498A18116A9A000A48821851600133002BF2D0074B5B7A002B08D1054C013363720648FFF7B8FE6268094B1A6004BC6A
:401100009046F0BD7C010020104C0000284C000048020020102700003C0200207911000020003A4008B5094B1B68002B0CDB084B1B68002BFBDB054A1368802109060B4357
:4011400013600A20FFF7CEFD08BDC04600003A40A0023A4008B5074B1B7ADB0706D4FFF749FF044A117A01230B431372FFF7DAFF08BDC0467C010020014B1A681A6070470C
:4011800010023A4010B5064A13680724234000021843CB00FF2119400143116010BDC0460C03004008B5084B1B78002B06D100F063F800F095F80122034B1A7000F02EF88F
:4011C00000F0BAF908BDC0468801002038B5FFF7E9FF051E02D100F08BF9051C002D02D100F044F9051C002D16D1FFF71EFC041C07E001F087F8201CFFF71BFCFFF715FC49
:40120000041C00F0FBF80028F3D1201CFFF711FC00F0CAF800F0AEF8281C38BD70B500230BE01348191D890000220A509A1C920082180121494251600133002BF1D00D4C7D
:40124000012310E06668227E094B5B1900211975012A06D12069002803D0F179E28A03F0B8F81C342B1C5D1E002BEBD170BDC04650020020644C000038B5164D281C002173
:40128000442203F0A6F8144B2B80B0235B006B80593BFF3BEB82073B2B76104C281C1A30211C20310E2203F08BF8221C043401230CE0A168E38A04E013784B7101320A3143
:4012C000031C581E002BF7D11C342B1C5D1E002BEFD138BD50020020DC0C0000604C00000023024A9380024A136070475002002094010020C9B2062902D08318002119718D
:401300005300195AC3185980821800231372704770B50D4DC3001A1A9200AA1894688A00511849006418181A80002818067E012305E0201C311C2A1CFFF7DCFF2B1C5D1EDB
:40134000002BF6D170BDC046644C000038B5051CC3001B1A9B00064AD318DB8A04E0281C211CFFF7D5FF231C5C1E002BF7D138BD644C000010B5012303E0201CFFF7E6FFF4
:40138000231C5C1E002BF8D110BDC04630B5012306E0D3B2062B02D063005D5A1D52231C5C1E002BF5D130BD70B501231FE0EB005B1B9B00104AD318DB8A14E0EB005B1BD3
:4013C0009B000D4AD318A100091949009A6894466144DE68301C1A7E062A01D060003018FFF7D4FF231C5C1E002BE7D12B1C5D1E002BDCD170BDC046644C0000024B187AEF
:401400007F2398437047C0465002002010B50F4B9B68DB030FD400280FD1430902339B000A4AD3185A681F230340DA40131CDB0705D4012404E0112402E0012400E0002426
:40144000002C01D100F050FB201C10BD5002002008B5054B9B68DB0303D400F013FA002000E0112008BDC0465002002010B50C4B9B681B0612D40024012040420BE0201C74
:40148000FFF7C4FF002805D10022064B1A70FFF7DFFF04E00134002CF1D000E0112010BD50020020980100207047C046084A8023DB051A6001380002064B18608023DB0502
:4014C0001B68002BFADB044A8023DB051A607047400000400003004040FF008008B5002803D1552100F0CEFB00E0012008BDC04638B50024002504E0201CFFF7EFFF0543AF
:401500000134002CF8D0281C38BDC04600230B737047C04610B5002409E0E3001B1B9B00044AD3185968201CFFF7F0FF0134002CF3D010BD644C000008B5FFF7EBFF00F016
:4015400037FA002008BDC04610B50F4B1B68702293431C1C0D4B197E0D4800F0ABFF0D4B984204D820232343074A13600BE0084B984204D830232343034A136003E0402301
:401580002343014A136010BDCC0000205002002000366E01001BB700034A044B1A60C1225204034B1A60704700008301C0010C40C4010C4001390843014B18607047C046EF
:4015C00000020C4070B50D1C161C04880123A3401C1C013CA00000194000642100F06AFF01302B18A34200D9231C854201D3281A00E00020864203D39E4203D9062002E08E
:40160000062000E0002070BD074B1A687F210A40064802431A60064A13680B40802109040B4313607047C046C0010C4000008301C4010C40064A136806490B431360064A7D
:40164000064B1A60C1225204054B1A607047C046A8020C400100001000008301C0010C40C4010C4038B5041CFFF7DFF90A490B687F25AB43094A1278A418A47A23430B607B
:4016800007490B68AB43074C2468A218527913430B60FFF7CEF938BDC0010C40C84C0000C4010C409402002038B5051C012088400138102912D16C1C6408041B0A4B197E6F
:4016C0000A4800F0F7FE0A4B984201D8A01E05E0064B984201D8E01E00E0201F002D02D0291C00F0E7FE38BD5002002000366E01001BB70008B5064B1A78D3009B1A9B002D
:40170000044AD3185B68D97A0020FFF753FF08BD9A010020644C000008B5031CC07A1988FFF7C2FF0004000C014B186008BDC04614030C4010B50E20FFF79CF901242F4B35
:401740001C601820FFF768F92D4A2E4B1A6000222D4B1A6006322D4B1A602D4B1C60802252042C4B1A602C4B1C60832252002B4B1A60033AFF3A2A4B1A60013A294B1A6071
:40178000F0235B0000E0013B244A1268520701D4002BF8D1002B02D10822224B1A600024184B1C60184B1C60832252001B4B1A600E20FFF769F90E20FFF752F9134B1C60FE
:4017C000134B1C60134B1C605022134B1A604F3A154B1A60094B1C600132114B1A60F0235B0000E0013B114A1268520701D0002BF8D10F4A0B4B1A6010BDC04680010C4069
:4018000001010100B0020C40B4020C4088020C4080020C4084020C40F0010C40F0000C40F8000C4040030C408C010C4000000C400103000008B5044A044B91680B43936026
:40184000FFF778FF08BDC046500200208000010070B5041C857E067EFFF7E7F823681B680F22B24093431A1C0423B3401343666832680721A9408A43326022681360FFF724
:40188000D8F870BD70B5174E3278174DD3009B1A9B00EB185868154C002323703278D3009B1A9B00EB189968227893009B185B00CB180F4A1360FFF7D5FE3278D3009B1AE0
:4018C0009B0058592178CA00531A9B00C018094B1860FFF7BDFF084800F080FAFFF7AAFF70BDC0469A010020644C000099010020940200209C0100209923000008B5C3007B
:40190000181A8000054BC058CB00591A89004018034B1860FFF79CFF08BDC046644C00009C01002038B5041C007EA57E21680B680F22824093430B60FFF777F861680B6860
:401940000722AA4093431A1C0623AB4013430B60FFF76FF8A1680B68607E0122824093430B6038BD38B500251AE0EB005B1B9B000D4A9A580D4B1A60002408E0E3001B1B59
:401980009B000A4A1068C018FFF7CCFF0134EB005B1B9B00044AD3189B7DA342EED80135002DE2D038BDC046644C00009C01002038B5FFF7D7FF0024284B1C60284B1C60C2
:4019C0001022284B1A60284B1C60284B1C60284B1C60284B1C60284A1460284B1C6028490868284B0340C020C00003430B6026490B688020400103430B600125234B1D60CA
:401A000023490B68234803430B6080235B0422490B602248224908601360224A224B1A60FFF7BAFD214B187EFFF740FDFFF78CFD1F4B1B681F4A13431F4A13604820FEF78A
:401A4000EBFF1E4B1D601E4B1C6004221D4B1A60C02212031C4B1A6038BDC046F4000C40B4020C40C0020C4020030C4084010C4088020C4080020C4084020C4080010C4003
:401A800000050240FFF0FFFF94020C40A0020C40A8020C4001000010A4020C404111000088010C400000030190020C4050020020CC0000200010008000000C4000030C4097
:401AC000F0010C4010030C4004020C4010B5054B1B79012B05D1034C2068FFF723FF0023237110BD9C01002070B5041C104DC3001B1A9B00EB185E68FFF7E8FFE4B20D4956
:401B00000C700A78D3009B1A9B005A590A4B1A600A4A7F2390689843031C906009780B439360301CFFF7F8FDFFF7E4FD70BDC046644C00009A0100209C010020500200208D
:401B400038B5C3001B1A9B00114AD3185D68C9B2104C21709968227893009B185B00CB180D4A1360FFF7C0FF281CFFF77BFD20780A4CC300181A800023689C46604420602E
:401B8000FFF766FE01232371054800F027F938BD644C000099010020940200209C01002021230000F0B5474680B482B0071C0E1C90462D4A1178CB005B1A9B002B49CB18B3
:401BC0005B680193402333701078C0B2284B1978C9B2FFF7B5FFFFF717FD4025FFF72AFE244A00E0013A244B1B7A5BB2002B01DA002AF7D1214B1B681C88BC4202D2337836
:401C0000AB4333706D0833782B4333700198FFF729FD002DE2D1144B1A78D3009B1A9B00124A9858124B1978CA00531A9B00C018134D2860FFF776FE00232B71FFF7FAFC58
:401C40000198391C221CFFF7BDFC43461A7833789A4201D242461370084B1B6832785A7102B004BC9046F0BD9A010020644C00009901002033330000500200209402002016
:401C80009C010020F0B54F4680B484B0051C8946C3001B1A9B00384AD3185F68012303AA137038888340181C01384843642100F001FC0190EAB2314B1A70314800F08EF8AB
:401CC0003C1C0A3400222F4B1A7000260AE00198211C03AAFFF766FF06432A4A13780133DBB21370EB005B1B9B00234AD318254A12785B7E9342EAD803AB1B7801335B0819
:401D0000BB7200221F4B1A7023E0EB005B1B9B00194AD3189A681B4B1B789C00E41864001419194B1C606379B87A83420AD31B1AD8B260714B4658436330642100F0BAFBE6
:401D4000607101E0002363710E4A13780133DBB21370EB005B1B9B00074AD318094A12785B7E9342D1D80022064B1A70301C04B004BC9146F0BDC046644C00009A01002075
:401D8000212300009901002094020020014B98677047C0460000002010B5041CFEF745FE044A1168044B0B40A4051C431460FEF740FE10BD0CE400E0FFFF3FFF8022D201CC
:401DC000014B1A607047C04600E100E08022D201014B1A607047C04680E100E010B5041CFFF7F4FF201CFFF7D1FF0320FFF7D4FFFFF7E4FF10BDC0460323064A1360802174
:401E00000906054A11600421044A1160044A13607047C046A40100200000304004003040080F3040044A1168044B1B680B43802109010B431360704704003040A4010020FE
:401E400008B5064B1B79002B04D1FFF7D5FF0122024B1A71FFF7E6FF08BDC046A40100200323064A136080210906054A11600421044A1160044A13607047C046AC01002008
:401E80000000314008003140140F3140044A1168044B1B680B43802109010B431360704708003140AC01002008B5064B1B79002B04D1FFF7D5FF0122024B1A71FFF7E6FF12
:401EC00008BDC046AC010020044A1368802109060B431360F022024B1A60704700023F4008023F40024A116801230B431360704708023F4008B5064B1B78002B04D10122C8
:401F0000034B1A70FFF7E0FFFFF7ECFF08BDC046B401002004490868044B1B680322134003430B607047C04604003140B8010020F0B5184E184A33681A400004F0231B0319
:401F4000184010433060154A94461768144A174003401F43420C07210A4003242040431E104D50008018C01880004259F0231B0513401F4363461F6033685A0C114023406F
:401F80005A1E4B005B189B189B005B591C40064B1C60F0BDB8010020FFFFF0FF04003140FFFFF0F0CC4C0000080F314008B503210D4B19600D4A1368802000060343136077
:401FC0000B4B18680B4A02401A601A688020000102431A601B68194201D0FFF79BFF0020FFF7A6FF08BDC046B80100200000314004003140FBF7FFFF08B5064B1B79002BD7
:4020000004D1FFF7D3FF0122024B1A71FFF782FF08BDC046B80100208C23014AD05070470000002010B5041CFEF7FFFC044A13689B009B08A4071C431460FEF7FAFC10BDEA
:4020400010E400E080221203014B1A607047C04600E100E080221203014B1A607047C04680E100E010B5041CFFF7F4FF201CFFF7D3FF0320FFF7D6FFFFF7E4FF10BDC046AA
:402080000004000C014B18607047C046880101400004000C014B18607047C0469401014038B5041C0D1CFEF7C0FCAC40024B1C60FEF7BFFC38BDC0460800014008B5FEF71C
:4020C000B4FC064A116804230B431360FEF7B1FC04201821FFF7E4FF08BDC04600000140014B18607047C046B801014008B581229204074B1A600C22064B1A600120FFF74E
:40210000EFFF0548FFF7C4FF0020FFF7B9FF08BD80010140A401014060EA000008B5064B1B78002B04D1FFF7E1FF0122024B1A70FFF7C4FF08BDC046C0010020014B18608C
:402140007047C046B001014008B5FEF76EFC044A136802218B431360FEF76BFC08BDC046000001400004000C014B18607047C046480101400004000C014B18607047C04653
:402180005401014038B5041C0D1CFEF74EFCAC40024B1C60FEF74DFC38BDC0460800014008B5FEF742FC064A116802230B431360FEF73FFC02201821FFF7E4FF08BDC0460F
:4021C00000000140014B18607047C0467801014008B580229204074B1A600C22064B1A600120FFF7EFFF0120FFF7C4FF0020FFF7B9FF08BD400101406401014008B5064B01
:402200001B78002B04D1FFF7E3FF0122024B1A70FFF7C6FF08BDC046C1010020014B18607047C046700101408823014AD05070470000002010B5041CFEF7F7FB044A11681E
:40224000044B0B40A4051C431460FEF7F2FB10BD10E400E0FFFF3FFF8022D202014B1A607047C04600E100E08022D202014B1A607047C04680E100E010B5041CFFF7F4FFC7
:40228000201CFFF7D1FF0320FFF7D4FFFFF7E4FF10BDC046044B1B681F221340082BF9D0024B18607047C046080208404002084038B5041CFEF7B9FB051C102C05D8104A7A
:4022C000136803218B43136016E0202C07D80C490B6803229343023A13430B600CE0302C07D807490B6803229343013A13430B6002E00020FEF7D2FB281CFEF79AFB38BDB5
:402300003000104008B5FEF790FB044A136804218B43136030BFFEF78CFB08BD10ED00E083225200144B1A60144B1A78D3009B1A9B00134AD3185B68124A12681204120CAB
:40234000198801238B40013B9A4206D20E4B19680E4B1B785B00CA5205E00B4A11680B4A127852008B520A4BDA880132DA80094A99680A409A607047F0000C409A01002055
:40238000644C0000D0000C4094020020C84C0000500200207FFFFEFF38B53C4B19783C4CCA00521A920010593A4A1578E9004A1B9200801883214900374A11601B78DA0007
:4023C000D31A9B00E3185B68344A12681204120C198801238B40013B9A4206D2304B1968304B1B785B00CA5205E02D4A11682D4A127852008B52FFF795FA244B1878244974
:40240000C200121A92008A1850681B78DA00D31A9B00CB189B7D1F4A1278013B93421DD91C4C23780133DBB22370184D2A78D3009B1A9B00CB189968227893009B185B0038
:40244000CB18174A1360FFF70DF92878C0B22178C9B2FFF753FAFFF76DF915E000220D4B1A70114A114B91680B409360104A1278012A02D1FFF718F806E00B4A80218B436B
:402480009360D3880133D38038BDC0469A010020644C000099010020F0000C40D0000C4094020020C84C000050020020FFFFFEFF98010020002243088B4274D303098B4285
:4024C0005FD3030A8B4244D3030B8B4228D3030C8B420DD3FF22090212BA030C8B4202D31212090265D0030B8B4219D300E0090AC30B8B4201D3CB03C01A5241830B8B425B
:4025000001D38B03C01A5241430B8B4201D34B03C01A5241030B8B4201D30B03C01A5241C30A8B4201D3CB02C01A5241830A8B4201D38B02C01A5241430A8B4201D34B02ED
:40254000C01A5241030A8B4201D30B02C01A5241CDD2C3098B4201D3CB01C01A524183098B4201D38B01C01A524143098B4201D34B01C01A524103098B4201D30B01C01A22
:402580005241C3088B4201D3CB00C01A524183088B4201D38B00C01A524143088B4201D34B00C01A5241411A00D20146524110467047FFE701B5002000F0FCF802BDC046A3
:4025C0000029F7D003B5FFF775FF0EBC4243891A1847C04603460B437FD4002243088B4274D303098B425FD3030A8B4244D3030B8B4228D3030C8B420DD3FF22090212BA81
:40260000030C8B4202D31212090265D0030B8B4219D300E0090AC30B8B4201D3CB03C01A5241830B8B4201D38B03C01A5241430B8B4201D34B03C01A5241030B8B4201D39E
:402640000B03C01A5241C30A8B4201D3CB02C01A5241830A8B4201D38B02C01A5241430A8B4201D34B02C01A5241030A8B4201D30B02C01A5241CDD2C3098B4201D3CB0167
:40268000C01A524183098B4201D38B01C01A524143098B4201D34B01C01A524103098B4201D30B01C01A5241C3088B4201D3CB00C01A524183088B4201D38B00C01A5241F3
:4026C00043088B4201D34B00C01A5241411A00D201465241104670475DE0CA0F00D04942031000D34042534000229C4603098B422DD3030A8B4212D3FC22890112BA030A99
:402700008B420CD3890192118B4208D3890192118B4204D389013AD0921100E08909C3098B4201D3CB01C01A524183098B4201D38B01C01A524143098B4201D34B01C01ABF
:40274000524103098B4201D30B01C01A5241C3088B4201D3CB00C01A524183088B4201D38B00C01A5241D9D243088B4201D34B00C01A5241411A00D20146634652415B106E
:40278000104601D34042002B00D54942704763465B1000D3404201B5002000F00BF802BD0029F8D003B5FFF715FF0EBC4243891A1847C0467047C0469E2110B5C905041C01
:4027C00001F0F0FC002803D1201C00F071FD10BD9E21201CC90500F0EDFB00F069FD80231B069C466044F2E7F8B54A00430244004E02C50F240E281C9B09120EC90FB70909
:402800008D4240D0A01A002800DC84E0002A1CD1002F5CD15A0704D00F221A40042A00D004338022D2041A40281C002A24D00134FF2C00D17BE09B015B0AE4B25B02E40592
:402840005B0A2343C0071843F8BDFF2CE2D08022D204174301261B2808DC391C20223E1CC140101A8640771EBE410E439B1B5A0133D4281C5A07CFD1DB08FF2C1ED05B023C
:402880005B0AE4B2DAE7A11A002957DD002A3AD0FF2CBFD08022D204174301261B2972DD9B195A01E5D50134FF2C00D187E001218A4A194013405B080B43ABE7002B36D053
:4028C0008022D20313435B025B0AFF24B6E7013800283FD1DB1B5A01CBD59B019E09301C01F06AFC05388640844223DC001B1F24321C431C201ADA408640131C741EA641AC
:402900000024334386E7002F00D183E70139002950D1DB19C5E7002820D1621CD2B2012A5EDDDE1B720128D5FE1A0D1CD7E7FF24002383E7694B241A33406BE7002958D160
:40294000621CD1B201293CDDFF2A37D0FB185B08141C5FE7FF2C00D07CE75BE7002C1ED0FF2A23D08024E404404223431B285BDD0123FB1A141C0D1CADE7002EAFD100233B
:402980000020002478E73A1CCA40944620223E1C511A8E406246771EBE41164380E7002B3ED0C0430028E4D0FF2ADFD13B1CFF240D1C2FE7FF2C00D06FE72BE7FF24002316
:4029C0005AE7002C5AD1002B7FD0002F00D121E7DB195A0100D44CE7404A0134134019E7002C15D1002B2FD1002F5DD03B1C0D1C10E7002C21D1002B53D0C943002904D0D0
:402A0000FF2A4BD01B2957DD0123DB19141C48E7002B22D1002F4AD03B1C0D1CFF24F9E63B1C141C0D1CF5E61D1C2024C540201A8340581E83412B439BE7FF2A2ED080247B
:402A4000E40449422343DDE7002F00D1E2E6DA1B50013CD5FB1A0D1CDCE6FF24002F00D1D8E68022DB08D203134204D0FE08164201D1331C0D1CDB00FF24CBE6002B0DD0D7
:402A8000FF24002F00D1C5E68022DB08D2031342F1D0FE081642EED1331CECE73B1CFF24B8E63B1C141CB5E6231C0020E4E6802300209B04FF24DFE61E1C2024CE40611AE5
:402AC0008B40591E8B4133439FE73B1CA2E6131E00D0CEE600230020CEE6C046FFFFFFFBF0B556464D465F464446F0B443024500C70F83B08A465C0A2E0EB94641D0FF2E5A
:402B000026D080231B042343DC00002398469B467F3E53465B025D0A53465A00DB0F120E9A4639D0FF2A33D080231B042B43DD0000237F3A5146B21A46467940081C019245
:402B40001E430F2E00D976E07E4AB6009659B746002C30D108239846063B9B46D9E780230021DB03FF245B02E4055B0AC90723430B43181C03B03CBC90469946A246AB46A5
:402B8000F0BD002C28D104239846033B9B46C0E7002D1FD1022302E0002D11D10123B21A50464646784001921E430F2E27D86649B60089598F460C239846093B9B46A8E76E
:402BC000281C01F0F9FA7622431F52429D40121A0023AFE70323ADE7201C01F0EDFA431F9C4076235B421E1A002398469B4690E70025D1469B465B464846022B6FD10121AF
:402C0000FF2401400023AEE77E23019A5B429B1A1B2B6DDD01214B46194000240023A2E78023DB031C4249D18023DB0323435B025B0A391C96E763016D01AB4237D3894672
:402C40001A2001215B1B01241E1C49005B00002E01DBAB4201D35B1B214301380028F3D1581E83410B431D1C019C7F34002CCBDD6B0704D00F232B40042B00D004352B0189
:402C800004D5019A314B8032141C1D40FE2C07DD4B460121FF241940002364E7251CAAE701214A46AB015B0AE4B211405BE7019A8946013A01921B200021C4E71D4207D007
:402CC00023435B025B0A391C4CE700256302ABD58023DB032B435B025B0A514642E7032B25D0012BC0D101210024014000233AE7291CD9402B1C019A9E3293405D1EAB41B4
:402D00000B435A0704D00F221A40042A00D004335A0105D54B46012101241940002322E701214A469B015B0A114000241BE7802301214A46DB032B435B020A405B0A111CBA
:402D400010E7C046144D0000544D0000FFFFFFF7F0B55F4656464D464446F0B445024600C40F83B00F1C6D0A360EA34645D0FF2E25D080231B041D4300239A46ED007F3E51
:402D800001937B025B0A98467800FB0F000E994640D0FF2838D0802342461B041343DB00984600237F384A46019F30186240411C1F430F2F69D87D4EBF00F659B746002D83
:402DC00045D108230193063B9A46DAE793465346022B2FD15B46012400251C40FF236D02DB056D0AE4071D432543281C03B03CBC90469946A246AB46F0BD002D2CD1042320
:402E00000193033B9A46BCE743465A4253410322D31AC8E742460123002AC4D0404601F0CBF94246431F9A4076235B42181A90460023B8E7032B00D1ADE0012B00D08CE066
:402E40005B4654461C40E4B200230025C7E70C230193093B9A4694E7281C01F0ADF97626431F9D4000237642361A01939A4688E780250024ED03FF23B1E74546CB469A461A
:402E8000A5E7454693469A46A1E743462C041B0C9C46230C444626041C1C360C2F0C7443351C66467D4373437743EB18260C9E19B54203D980235B029C46674424043304D1
:402EC000240C1B199D016C1EA5419B0E360C2B43BD19AD011D432B0104D5012368081D400543081C031C7F33002B2CDD690704D00F212940042900D00435290103D52C4B30
:402F00001D40031C8033FE2B17DD0124FF231440002564E78020C003054209D04346034206D1454605436D026D0A4C46FF2356E705436D026D0AFF2351E70124AD016D0A96
:402F4000DBB214404BE77E235B421B1A1B2B07DD012400231440002541E7081C5A46C1E79E30291C8540D940681E85410D436B0704D00F232B40042B00D004356B0104D55F
:402F8000012401231440002529E70124AD016D0A1440002323E78023DB031D4301245B466D0223401C1C6D0AFF2318E7944D0000FFFFFFF7F8B54A00430244004D02C00FB8
:402FC000240E061C9B09120EC90FAD09FF2A00D175E001277940884250D0A01A002800DC8FE0002A1ED1002D00D075E05A0704D00F221A40042A00D0043380220120D204EB
:403000001A403040002A32D00134FF2C00D184E09B015B0AE4B25B02E4055B0A2343C0071843F8BDFF2CE1D08022D20415431B287ADD01255B1B5A015DD59B019F09381C7F
:4030400001F0BAF805388740844269DC001B1F243A1C431C201ADA408740131C7C1EA74100243B43C2E7131E45D100230020DB08FF2C28D05B025B0AE4B2CCE7A11A0029F5
:403080005BDD002A2ED0FF2CB0D08022D20415431B2974DC2F1C2022CF40511A8D40691E8D413D435B195A0125D50134FF2C74D001217E4A194013405B080B4396E7002D9A
:4030C00000D088E785E7002B27D08022D20313435B025B0AFF249EE701380028AAD0FF2CA5D183E7002D00D180E701390029D9D0FF2CCDD17AE75A0700D079E70120304029
:40310000B5E7002825D1621CD2B2012A55DD5F1B7A012DD5EF1A0E1C91E7FF2400237AE7624B241A3B4061E7291C2022C140101A8540681E85410D437CE7002946D1621C4B
:40314000D1B201292BDDFF2A26D0EB185B08141C4CE7002C15D0FF2A1AD08024E404404223431B284DDD0123EB1A141C0E1C62E7002F00D063E700230020002477E70125AD
:4031800090E7002B39D0C0430028EDD0FF2AE8D12B1CFF240E1C29E7FF24002367E7002C5AD1002B7FD0002D00D11FE75B195A01A1D53E4A0134134018E7002C15D1002BFC
:4031C0002FD1002D5ED02B1C0E1C0FE7002C21D1002B54D0C943002904D0FF2A4CD01B2958DD01235B19141C5DE7002B23D1002D4BD02B1C0E1CFF24F8E62B1C141C0E1C53
:40320000F4E61E1C2024C640201A8340581E83413343A9E7FF2A2FD08024E40449422343DDE7002D00D1E1E65A1B500100D41AE7EB1A0E1CDAE6FF24002D00D1D6E68022BC
:40324000DB08D203134204D0ED08154201D12B1C0E1CDB00FF24C9E6002B0DD0FF24002D00D1C3E68022DB08D2031342F1D0ED081542EED12B1CECE72B1CFF24B6E62B1C7D
:40328000141CB3E6231C0020F1E6802300209B04FF24ECE61F1C2024CF40611A8B40591E8B413B439EE72B1CA0E6C046FFFFFFFB4202510A4200C30F120E00207E2A0DDD4E
:4032C0009D2A0CDC802000040143952A0ADC9620821AD1400A1C58424240D0187047034A9818FBE7963A91400A1CF4E7FFFFFF7F70B5041E39D0C50F00D04442201C00F0AB
:403300005BFF9E23261C1B1A962B07DC082801DD083884406402640AD8B21EE0992B0ADD0522211C121AD1400A1C011C1B318E40711E8E411643052801DD421F96400F4CEC
:403340003440720704D00F221640042E00D0043462010ED4A401640AD8B26402C005640AED0704432C43201C70BD002500200024F3E7024B1C409F231B1AEBE7FFFFFFFB90
:40338000F0B5454657464E4694464C000A03C90FE0B488460E1C1903470FC500480A6146490F01436046520A1743C0005A00640D520DDB0F8446984500D1A7E0A01A002838
:4033C00000DC01E1002A3DD163460B4300D0D4E06B0700D188E00F232B40042B00D183E02A1DAA42AD4180236D427F191B043B404646151C002B00D17CE0CC4B01349C42CD
:4034000000D1FDE03A1CCA4BED081A405007640552020543120B640D002112030B0D1B056405120B1A436308C24CF60714401C43640064083443281C211C1CBC904699466B
:40344000A246F0BDB94B9C42C2D080231B041943382800DDECE01F2800DD21E120220E1C6346121A9640C340334366469640321C561EB24113430A1CC240EB1A9D42B641D6
:403480001D1CBA1A7642971B3B0200D497E07A02560A002E00D1B6E0301C00F08DFE031C083B1F2B00DDB7E09E40371C28262A1C361AF240161C9D403E439C4200DDB2E091
:4034C0001C1B621C1F2A00DDD8E01F23291C1C1B331CA540A340D1406C1EA541D64019430D43371C002473E780231B043B40464600D082E78D4BED0878070543FA089C42DA
:4035000032D012036405120B640D85E7A31A002B00DC94E0002A3CD0844A944200D157E7802212041143382B00DC05E163461943481E81410022C8B24019A8429B41051CB6
:40354000D2195B42D7183B0239D5784B01349C4200D14CE10120764A6B083A4028401843D5070543570833E72B1C134348D080231B031A431203120B4EE70138002878D1A3
:403580006346EE1AB5429B417A1A5B42D71A351C7AE7021C0A4300D11AE7013B002B00D0F2E04019A8429B41CA195B42D718051CC9E7131C334300D118E1171C351C46468F
:4035C0006B0700D007E795E700287AD1621C5205520D012A00DCFBE06246AA1A9542B6419146781A7242861A320200D493E06246551BAC458041CF1B40423E1A984648E789
:403600000022002508E7281C00F0D6FD2030031C083B1F2B00DC47E7283885402E1C00259C4200DC4CE7424AE41A1640371CCFE6634619434B1E99410022CBB21DE7002BC8
:4036400000D0F2E0601C43055B0D012B00DCA4E0364B984200D121E163465C19AC429B41CF195B42FA186408D50725435708041CAEE62E4B9C4200D0EAE6A9E6211C331C6E
:403680001F39CB40191C202A00D182E03F231C1BA64035436E1EB54100270D4300248EE7031C0E1C203BDE40202874D040231B1A99400B1C62461343591E8B4100223343AD
:4036C000DBE6002C50D0194CA24200D1A8E08024240440422743382800DDD9E01F2800DD39E120243E1C241AA640B0462E1CA146C640444626434C46A5406C1EA541C7405F
:4037000035436046451BCF1BAC45894149427F1A141C9846B8E64B464D46334300D0B8E60026002700240025E4E6C046FF070000FFFF7FFFFFFF0F801F2B5BDC2022081C32
:40374000D21A9040814660469246D8404A4610438146524660469040021C501E8241484610430A1CDA40E7E63C1C2C4358D0C043002851D16046451BAC458041CF1B4042DB
:403780003F1A141C98467FE68F4A944200D0CAE61EE600267DE700238CE73B1C2B43002C00D0BDE0002B00D1F5E063460B4300D10EE663465B19AB428041CA1940421718A0
:4037C0003A0200D4FCE0814A1D1C17400134FFE53A1C2A43002C51D1002A00D085E062460A4303D00F1C65469846F1E50026002700257FE6181C0A1C2038C240202B00D100
:40380000A7E04020C01A8140081C63461843411E8841104300228FE66B4CA24200D05AE70F1C6546141C9846D2E5002C3AD1381C284371D0DB43002B18D0634882426BD073
:40384000382B00DD9DE01F2B00DDA7E020203C1CC01A8440A1462C1C8246DC404846044350468540681E8541DF402543654465459B417F185B42FF18141C64E6002A19D189
:4038800062460A4377D00F1C654698464E4C9FE53D436F1EBD410027EDB232E7041C0027002527E64848824236D0802000045B420743C5E762460A4349D08024ED087807E0
:4038C000FA0824032843224209D0CE08264206D162464F07381CD20810439846321CD200470F1743C500384C72E562460A4300D16EE56246AE1AB5429241781A5242821A00
:40390000100200D455E66246551BAC458041CA1B4042171A98465BE50F1C6546141C57E5002B34D063460B4311D08024ED087807FA08240328432242D1D0CB082342CED115
:4039400062464F07381CD20810431A1CC7E71E4C3EE5002059E7041C3E1C203CE640341C20282BD04026301A87403D436F1EBD4100272543C5E680270026FF03124C00255A
:40398000B8E53D436F1EBD410027EDB26EE70F1C65460D4C1CE50F1C654619E51C1C381C203CE040041C202B0CD04020C31A9F403D436F1EBD410027254357E70027D4E71B
:4039C0001D1CFCE50027F3E7FF070000FFFF7FFFF0B55F4656464D464446F0B4051C061C080387B099464F00030BCC0F92469B467F0D019467D06C4B9F4236D080205B46F7
:403A000040031843C0006B0F1843684B83469C4600239846EE00674400934B4649461D03C90F5B0052462D0B5B0D894600D16EE05D498B4264D080205C4940038C4600210D
:403A40000543ED00500F0543D20063444846FF187B1C9A46009B604002900B430F2B00D9ACE053489B00C3589F465B461D4300D082E00823009300239B46023300269846B7
:403A8000CBE7029B01934346022B59D1012400250026019B1C40444B00212D030A0D12052D0B1543434A1B0515401D436D00E4076D082543301C291C07B03CBC90469946B1
:403AC000A246AB46F0BD2B434ED05B46002B00D185E1584600F070FB021C2823291C9B1A161C5846D940083EB0400B1CB54003439B462E1C0023304F0093BF1A98468CE74A
:403B0000514629432ED10025002202219EE75146294323D0002D00D154E1281C00F04CFB031C28215046C91A1A1CC8405146083A914095400A1C05431F480021C31A85E713
:403B4000032B00D1C2E1012B00D06DE14446019B00251C40E4B2002300269DE700250022012173E7032171E70423009300239B4601330026984650E70C230093093B9846FF
:403B80004BE7802500242D030026074B84E74B46AB46161C0193884675E7029BAB46161C019388466FE7C046FF07000001FCFFFFD44D0000FFFF0F800DFCFFFF330C3604D8
:403BC000360C9C46331C140C1204120C53439846634653439946634663430193331C41466343090C4B445B18994505D9802040028146019949440191190C0391414609048B
:403C0000090C1B045B1804932B0C9846331C2D04290C4B43604600934346654658435E43009B4D431B0C9946AE194E448446B54203D980235B029946CC44350C2B1C03980C
:403C4000634484460593009B36041B041B0CF3189C446046039058460504060C280C84465043351C81466046654344434846000C8346724314195C44A24203D9802252022A
:403C800093465D44220CAD184A461204120C24044046A41862464A437143464360460096464670438046100C84468844E044414505D9802149028C46009961440091019856
:403CC00003998446614499429B415B4299460598434684461204120C1B049B1863449C46AB4683429B4140460A19CC44A2428941E344CC45B6415C46000C80464942764228
:403D00005B426418334398448C428941AB459B4149425B4219430D1C009B4544EE187602E50D2E43B346049B56021E43731E9E415B46D20D324366021643DB010AD50123AC
:403D4000334076081E435B46DB071E435B465B089B465746634BFB18002B5ADD720709D00F223240042A05D0321DB242B6417642B344161C5A46D20106D55A465A4B1A4068
:403D800080239346DB00FB18584A934234DD0124029B00251C400026554B7DE680205B460003034208D0054206D105432D032D0B4C46161C4E4B6FE65D4605432D032D0B71
:403DC0004B4B69E6504600F0F7F9031C2033272B00DCA6E65546083885400022ACE6281C00F0EAF9021C2032272A00DC75E6083885400026AB467DE65A46F608520716430A
:403E00005A4601245502029A5B052D0B5B0D144042E6384DED1B382D0ADD0124029B00251C400026002337E6019B5746029391E71F2D25DC304B321C9C466744BE405B4644
:403E4000BB40371CEA407E1EB74113433B431E1C5B46EB401D1C730709D00F233340042B05D0331DB342B6417642AD191E1C2B0220D50124029B00251C40002601230BE693
:403E80005A461E4BDB1BDA40131C202D1CD01C4A94465A466744BA40171C3E43721E96411E4307230025334007D00F2300253340042BD6D16B076D022D0B0124F6081E43AA
:403EC000029B1C400023E7E50027E6E780255B4601242D031D43019B2D0323401C1C2D0B034BD9E5FF030000FFFFFFFEFE070000FF07000002FCFFFF1E040000E2FBFFFF3F
:403F00003E04000038B5041E16D0C50F00D04442201C00F051F9174B1B1A0A2821DC021C211C153291400A1C0B21081AC4405B052403240B5B0D03E000250023002400226A
:403F40000021101C24030A0D1205240B14430A4A1B0514401C436400ED0764082C43211C38BD0B3884405B052403240B5B0D0022E6E7C0461E040000FFFF0F804200120E62
:403F8000511C38B5C9B243025D0AC40F012915DDE02189008C466D071B0B62440021281C0D0D2D052B431C4D52052B40520813435B00E4075B082343191C38BD002A15D1B2
:403FC000002D1FD0281C00F0F7F80A281DDC0B232A1C1B1ADA40131C021C153295400F4A1B03121A52051B0B520DD7E7002D06D080221B0B120313436D07094ACEE7084AEA
:404000000023CBE700220023C8E7031C0B3B9D402B1C0025E3E7C046FFFF0F8089030000FF07000070B50B034D00440F6D0D5B0A23436C1C6405C90FC200640D012C2ADDD2
:404040003B4C2C19FE2C1ADC002C35DD8001451EA841DB000343520F13435A0704D00F221A40042A00D004338022D2041A4027D00134FF2C03D09B015B0AE4B201E0FF24E5
:4040800000235B02E4055B0A23435B00C9075B080B43181C70BD002D06D113430ED100245B025B0AE4B2ECE71A43E8D08020DB0080040343FF24D0E717340CDA0523002456
:4040C000DB08FF2CECD1002B2DD08022D20313435B025B0AD5E78024164824042343401B1F280DDC144CA4466544AB401C1C131CAB405D1EAB41C240234313430024ACE75B
:404100001E1C0E4C641BE640341C20280DD00C4884466544AB401D1C2A43531E9A41131C2343002499E70023ABE70025F4E7C04680FCFFFF9E03000082FCFFFF7E03000021
:40414000A2FCFFFF8446081C6146FFE71FB500F0C5F8002801D40021C8421FBD10B500F049F84042013010BD10B500F0B7F8002801DB002010BD012010BDC04610B500F02F
:40418000ADF8002801DD002010BD012010BDC04610B500F059F8002801DC002010BD012010BDC04610B500F04FF8002801DA002010BD012010BDC0461C2101231B0498424D
:4041C00001D3000C10391B0A984201D3000A08391B09984201D30009043902A2105C40187047C04604030202010101010000000000000000430270B542004C005D0AC30FFB
:404200004802120E460A240EC90FFF2A05D0FF2C08D00120A2420BD070BD0120002DFBD1FF2CF6D10120002EF6D10120A242F3D1B542F1D18B4205D0002AEDD1281C431ED9
:404240009841E9E70020E7E7F0B543024D024A0044005E0A240EC30F6D0A120EC90FFF2C0DD0FF2A31D0002C0DD177427741002A23D1002D21D10020002F0BD107E0002EDB
:4042800028D1FF2A21D0002A05D08B4207D0584201231843F0BD002DF9D08B42F7D19442F5DC04DBAE42F2D80020AE42F2D25842434101205B421843ECE7002FE5D048426B
:4042C0004141012049420843E4E7002D02D1002CCBD0DAE702204042DCE7C0464302F0B542004C005E0AC30F4802120E450A240EC90FFF2A0FD0FF2C1AD0002A10D177422F
:404300007741002C29D0002F17D0484241410120494208430BE00220002E08D1FF2C07D0002C0AD1002D08D1584201231843F0BD0220002DFBD1002AE1D08B42F4D1A24232
:40434000F2DC04DBAE42EFD80020AE42EFD25842434101205B421843E9E7002DD3D10020002FE4D1E0E7C046014B18687047C046300100200E4B70B500251E1C0D4CE41A51
:40438000A410A54204D0AB00F35898470135F8E700F05CFD084B00251E1C084CE41AA410A54204D0AB00F35898470135F8E770BD584E0000584E0000584E0000604E000031
:4043C000002310B5934203D0CC5CC4540133F9E710BD031C8218934202D019700133FAE7704700000EB410B59DB002A9029008610B48822488604861012040421FABC8819D
:40440000084804CBA400006801938C8100F06CF80023029A13701DB010BC08BC03B01847FFFFFF7F30010020F0B58E6885B0071C0C1C03920193B34245D390238A89DB00EC
:404440001A423DD003250969236801985B1A029363695D43EB0F5D19029B6D1001331B189D4200D21D1C381C53050FD5291C00F01DFB061E13D0029A2169FFF7A1FFA289F9
:40448000184B134080221343A38111E02A1C00F065FB061E0CD1381C216900F0C1FA0C23402201203B60A38940421343A38117E0029B2661F61826606561019EED1AA56084
:4044C000019BB34200D2019E321C2068039900F092FA0020A3689B1BA36023689E19266005B0F0BD7FFBFFFFF0B59FB0029005938B890E1C171C1B0610D50B69002B0DD134
:40450000402100F0D3FA30603061002804D10C23029A01381360D0E040237361002306AD6B6120336B761033AB763C1C2378002B03D1E31B049312D003E0252BF9D001340D
:40454000F4E7049B0298311C3A1CFFF76DFF431C00D1ACE06A69049B944663446B612378002B00D1A3E00122002352426A6002A95432521801342B60EB60AB601370AB65A5
:404580004F4F2178381C052200F02AFA002808D0C01B01278740381C2B68013418432860EEE72B68DA0604D55322202102A8121811701A0704D553222B2102A81218117030
:4045C00022782A2A01D0099B0EE0059A111D12680591002A01DB099204E05242EA60022213432B60013409E02278303A092A04D80A214B4301349B18F6E7099323782E2BE6
:4046000018D163782A2B09D1059B02341A1D1B680592002B0DDA01235B420AE0002301342278303A092A04D80A214B4301349B18F6E70793234F2178381C032200F0D0F9E3
:40464000002807D0C01B40278740381C2B6801341843286021781C480622671C297600F0BFF9002812D0194B002B06D10722059B073393430833059314E005AB0093029857
:40468000291C321C124B00E000BF07E005AB00930298291C321C0E4B00F08AF80390039B013304D06B69039A9B186B613DE7B3890B985B0601D5012040421FB0F0BDC046C1
:4046C000164E00001C4E0000204E00000000000029440000F7B5171C01930A698B6800900C1C934200DA131C221C3B6043321278002A01D001333B6023689B0602D53B685A
:4047000002333B60062523681D401ED0231C43331B785A1E9341226892061CD53020E1184031C870211C5A1C45310978A21840320233D1700FE0221C0123009801991932F5
:40474000089EB047431C0ED00135E3683A689B1A9D42F0DBDAE7221C009801994332089DA847431C02D10120404220E006232068E1683A6803400025042B03D18D1AEB43F2
:40478000DB171D40A3682269934201DD9B1AED180027AF420ADA221C0123009801991A32089EB047431CDED00137F2E70020FEBDF0B58BB006920A1C43320793059004925D
:4047C0000A7E0C1C109B6E2A00D1A8E011D8632A22D009D8002A00D1B2E0582A00D0C2E045310A707C4A4FE0642A1DD0692A1BD0B9E0732A00D1A7E009D86F2A29D0702A2A
:4048000000D0B0E0202209680A43226037E0752A1FD0782A33D0A6E00E1C1A684236111D196013683370A1E021681A68080606D4490604D5111D19600023D55E02E0111D34
:4048400019601568002D3BDA2D23049A6D42137036E021681A68080606D4490604D51568111D1960ADB202E0111D196015685A4B227E03930A276F2A1DD108271BE0221C2B
:40488000782145321170554A19680392081D226818600D68100602D4500600D5ADB2D30702D520231A4322601027002D03D1202322689A432260231C002243331A7002E026
:4048C0000A27454B03936368A360002B03DB0422216891432160002D02D1049E002B0ED0049E281C391CFDF76BFE039B013E5B5C281C3370391CFDF7DDFD051EF1D1082F89
:4049000009D12368DB0706D563682269934202DC3023013E3370049B9B1B23612BE009681A68080607D4490605D5111D19601368A28A1A8004E0111D1960136862691A60FB
:404940000023049E236116E01A68111D196016680021301C626800F043F8002801D0801B6060636803E0261C42363270012323610023049A1370079B05980093211C069BF5
:4049800009AAFFF7A7FE431C02D10120404221E0236905980699321C079DA847431CF4D023689B0705D4099BE068984212DA181C10E00025E368099A9B1A9D42F3DA221C79
:4049C0000123059806991932079EB047431CDCD00135EFE70BB0F0BD274E0000384E0000C9B28218904204D003788B4202D00130F8E70020704710B5814208D28B1898425B
:404A000005D29B1A013A09D3995C8154FAE70023934203D0CC5CC4540133F9E710BD000030B500293ED004390B68002B00DAC9181D4A1368141C002B02D14B60116031E04D
:404A400099420DD208680A189A4203D11368C3180B6053684B60216024E08A4203D8131C5A68002AF9D11D685C198C420BD10968691858181960904214D110685268091879
:404A800019605A600EE08C4202D90C23036009E008680C18944203D114685268001908604A60596030BDC046C8010020032370B5CC1C9C430834051C0C2C01D20C2405E0EE
:404AC000002C03DA0C2300202B6042E08C42F9D3204A1368101C191C002913D00A68121B0DD40B2A02D90A608B181FE08B4202D15A6802601BE04A685A600B1C17E00B1CB9
:404B00004968E9E7144E3368002B03D1281C00F04BF83060281C211C00F046F8031C421CD0D00322C61C964386420AD11C60181C07210B301A1D8843821A0AD0514299509B
:404B400007E0311A281C00F02FF8431CBAD0331CECE770BDC8010020C4010020F8B5061C0C1C151C002904D1111CFFF79FFF041C18E0002A03D1FFF753FF2C1C12E000F033
:404B800025F8A8420ED2301C291CFFF78FFF071E07D0211C2A1CFFF713FC301C211CFFF73FFF3C1C201CF8BD38B50023064C051C081C2360FBF724FD431C03D12368002B49
:404BC00000D02B6038BDC046980200200B1F1A68101F002A04DA891804390B68D01804387047000000000000E8030000256400002C2000000A0D0000EEDBC9B9AA9B8E821F
:404C0000766B60564D443B332C241D17100A04000015000000020000001000006400650173004000000040000000000003000000C02E2010F80004900D000D00020002008D
:404C40000002000E000000C0070000000000000000000000B0040000010000000100000020200000904C00006A020020780200208C01002090010020010002000102000001
:404C80001000640028280A031E64208000000000000102400801044000010440040104400000F0002000000014050F0000010240080104400001044004010440000000F09D
:404CC000800000001C071500000000000200000F0200000F0200000F020000080200000902000009010000030200000502000004010000000200000202000003010000008D
:404D00000200000002000001010000000100000001000000362C0000FE2B00001A2C0000F22B00001A2C00005E2B00001A2C0000F22B0000FE2B0000FE2B00005E2B000070
:404D4000F22B00009C2C00009C2C00009C2C0000202C0000FE2B0000FE2B0000E62C0000F02B0000E62C00005E2B0000E62C0000F02B0000FE2B0000FE2B00005E2B000050
:404D8000F02B00009C2C00009C2C00009C2C0000CA2C00008A2E0000822E0000822E00007A2E0000CC2D0000CC2D0000702E00007A2E0000CC2D0000702E0000CC2D000002
:404DC0007A2E0000CE2D0000CE2D0000CE2D0000142F0000BC3B00009A3B00009A3B00008E3B0000823A0000823A0000823B00008E3B0000823A0000823B0000823A00003A
:404E00008E3B0000863A0000863A0000863A00009C3D00004300232D302B2000686C4C00656667454647003031323334353637383941424344454600303132333435363720
:404E4000383961626364656600000000F8B5C046F8BC08BC9E4670472102000079060000F8B5C046F8BC08BC9E467047F9010000804E0000B00000208800000068010000B5
:404E800000000000A00200200000E02EC05D00001800000000366E010404040002000004000000000000000000000000000000000000000000000000000000000000000036
:404EC000144E000000000000000000000000000000000000000000000000000000000000000000000000000000000000000000000000000000000000000000000000000050
:404F0000D000002000000000000000000000000000000000000000000000000000000000000000000000000000000000000000000000000000000000000000000000000081
:404F40000000000000000000000000000000000000000000000000000000000000000000000000000000000000000000000000000000000000000000000000000000000031
:404F800000000000000000000000000000000000000000000000000000000000000000000000000000000000000000000000000000000000000000000000000000000000F1
:404FC00000000000000000000000000000000000000000000000000000000000000000000000000000000000000000000000000000000000000000000000000000000000B1
:405000000000000000000000000000000000000000000000000000000000000000000000000000000000000000000000000000000000000000000000000000000000000070
:0200000490303A
:020000008783F4
:0200000490402A
:200000000000000000000000000000000000000000000000000000000000000000000000E0
:0200000490501A
:0C00000000021C0011AC00011C19992F1B
:0200000490600A
:0100000001FE
:00000001FF