:400000000010002011000000890300008903000008B500F0DBFD00F0D1F9C04638B5214C12232360182000F049FD802252001E4B1A608023DB051D4919601D490A601D4933
:4000400019601D481D4908601D4919601D490A601D4A1A60F02109011C4A11601C4A1A601C4A1D4B1A6000251C4B1D6042221C4B1A6002321B4B1A60033A1B4B1A60023277
:400080001A4B1A600B201A4900F062FC0B2000F053FC184B1D60002000F0A0FD1123236038BDC046300010400003004040FF00800803004042FF008000BF5D0010030040DF
:4000C00044FF00800403004041FF00800C03004043FF008020000080300003402800034030010040140100401001004004010040750C00000C02064008B572B6154A164BD1
:400100001A600822154B1A600022154B1A602C32144B1A60144A154B1A608023144A13602421144A1160C3214903134A1160134A1360C0214903124A1160124A1360012294
:40014000114B1A600532114B1A60FFF767FF00F08DF908BDEE069900000002400004024004013F400000044036140300080004400C00044018000440080104400002044050
:400180000802044018020440000404400804044010B5064C2378002B07D1054B002B02D0044800E000BF0123237010BD3001002000000000202A000008B5084B002B03D0E1
:4001C0000748084900E000BF07480368002B00D108BD064B002BFBD09847F9E700000000202A000034010020B00000200000000008B51A4B1B68002B10D1142000F0E0FB20
:4002000000F066F9002805D100F0F8F90122134B1A6020E00022114B1A601CE0142000F0CFFB00F055F9002812D100F039FAC043C0B200F029FA0A4A1368DB431360002B34
:4002400002D1002000F05CFAFA20800000F0B8FB0022024B1A6000F043F908BD8C0100208001002008B50022024B1A60012000F0D5F908BD8C01002008B500F099FE00F0B5
:40028000B3FA00F08DFA084800F0F0F9074800F059F9012000F018FA012000F009FA012000F0F2F908BDC046F10100006502000070B582B062B6FFF7DFFF0023284A1360BE
:4002C000284A13600022284B1A60002000F018FA00F017FB254B1860214B1B68002B36D000F086FD012000F097FD0028FAD11E4E306801F05DFE1E4A1E4B01F083FB041C23
:400300000D1C002000F0A4FDFF23181A01F014FE194A1A4B01F076FB021C0B1C201C291C01F048F801F098FE306001F023F800F0E7F9306801F01EF8021C6846104901F0C3
:400340006FFF684600F0C8FA0E4800F0C5FA074B187800F0DAFA0A2000F032FBB8E7C046800100208C0100208401002088010020666666666666EE3F9A9999999999A93F6C
:40038000242A0000282A0000FEE7C04608B5031C084A1068C318084A9A1A802A02DC054A136005E001F006FF0C2303600120404208BDC046B4000020A001002070B50F4EEF
:4003C0000F4D13E029686B68AC68002202E001C901C30432A242FAD1E868002202E0002102C304328242FAD11035013E002EE9D101F0E6FEFFF75CFFFEE7C0460100000042
:40040000182B000008B500230AE0032B03D89A000949505800E009489900094A88500133282BF2D9FFF768FE0022064B1A6080229205054B1A6008BD00000000890300002E
:4004400000000020A800002008ED00E0064B1B68002803D080221206134301E05B005B08014A13607047C04680033A4008B503220E4B1A6080231B060D4A13608021490498
:400480000C4A11600C4A13608022D2020B4B1A600B4A0C4B1A60F1220B4B1A6000220B4B1A600120FFF7D2FF08BDC04600210240000038401000384000003A4000033A405E
:4004C0000100008000023F4008023F40000E3F40024B18680007C00F7047C04604000440034A1068082318401060C008C0B27047100004408823014AD05070470000002052
:4005000010B5041C00F0FDF9044A1168044B0B40A4051C43146000F0F8F910BD10E400E0FFFF3FFF8022D202014B1A607047C04600E100E08022D202014B1A607047C046A2
:4005400080E100E010B5041CFFF7F4FF201CFFF7D1FF0320FFF7D4FFFFF7E4FF10BDC0460004000C014B18607047C046480101400004000C014B18607047C0465401014090
:4005800038B5041C0D1C00F0BCF9AC40024B1C6000F0BBF938BDC0460800014008B500F0B0F9064A116802230B43136000F0ADF902201821FFF7E4FF08BDC04600000140E8
:4005C000014B18607047C0467801014008B581229204084B1A600C22074B1A600120FFF7EFFFFA20C000FFF7C3FF0020FFF7B8FF08BDC046400101406401014008B5064B9E
:400600001B78002B04D1FFF7E1FF0122024B1A70FFF7C4FF08BDC0464C010020014B18607047C04670010140014B18647047C0460000002010B5041C00F063F9044A136894
:40064000C0218B43A4011C43146000F05EF910BD00E400E00122014B1A60704700E100E00122014B1A60704780E100E010B5041CFFF7F6FF201CFFF7D7FF0320FFF7DAFF6F
:40068000FFF7E8FF10BDC04604490A68BF231A4080017F3B184010430860704700010440024B18684006C00F7047C0460401044004490A68BF231A4080017F3B184010437C
:4006C000086070470002044004490A68EF231A400001DF3B1840104308607047000104400004000C014B18607047C046080101400004000C014B18607047C046140101407E
:400700000004000C014B18607047C0460C01014038B5041C0D1C00F0F4F8AC40024B1C6000F0F3F838BDC0460800014008B500F0E8F8064A116801230B43136000F0E5F8EC
:4007400001201821FFF7E4FF08BDC04600000140014B18607047C0463801014010B50D4C8023DB042360236823600020FFF7B8FF236823600C22084B1A600120FFF7E8FF3A
:400780003122064B1A60FF20FFF7B2FF0020FFF7B7FF10BD00010140240101402801014008B5064B1B78002B04D1FFF7D7FF0122024B1A70FFF7BAFF08BDC0464D0100205B
:4007C00008B500F073F808BD08B500F01DF808BD08B5044A1368802109060B431360FFF7EFFF08BD0000084008B5064B1B78002B04D1FFF7E9FF0122024B1A70FFF7E8FF57
:4008000008BDC0464E01002010B5154A154B1A600023154A13600121144A1160144A15480260072414480460144803601448016014490A60144A13600421144A1160144A2C
:400840001360144A1360144A1360144A1360144A1360144A13601268134B1A8010BDC0460C00000200000840400008404800084007000080000308400403084010030840C1
:4008800044000840000208400402084050000840880E0840C80E0840480F0840080F0840C80F0840880F084050010020064A1168064B0B40902109040B431360044B1A883E
:4008C000044B1A607047C04600000240FFFF0FFF50010020880F084038B5051C002402E000F08EFB0134285D0028F9D138BDC0460230800803D001300238FCD1C046C046CF
:400900007047EFF3108072B6704780F310887047024A1168024B0B401360704700000640FFFFFFBF034B18688023DB05184000D001207047000006401F2318401E3B834017
:40094000181C014B1860704700E100E001BE704738B5041C0D1C182802D90020FFF7F6FFA400034B9C4664442068256038BDC0464000002070B5041C0E1E032E02D90020B4
:40098000FFF7E4FF182C02D90020FFF7DFFF03252540ED000635FFF7B4FFA408A400074B9C46644423680322AA409343AE40351C1D432560FFF7A9FF70BDC04600E400E098
:4009C00010B5041C06E0084B1868FFF791FF074B9C46644480231B029C42F4D8024B58686043FFF785FF10BDB80000200080FFFF30B583B000F0E0F8002848D0FFF781FFAA
:400A0000041C244B1B6807221A409200131C1833214A12681207920FD3401A1C1F4B19681F4B19401F4B53438020C00184466344DB0B013B5B055B0D0B43A021490319430C
:400A4000192A02D8184A13430BE0184BD31818781A3A174B9B5CC318FF2B00D9FF239B050B430E4A1360134D2B680193302000F0D5FA114A13688021C9050B4313601420A2
:400A8000FFF79EFF019B2B60201CFFF73EFF03B030BDC046080F0340280003400800064000F800C040420F000000D43FCDF1FF0F2C2A00003000104000000640F0B583B038
:400AC000041E182C0BD01C2809D0202807D0242805D0282803D02C2801D0302849D1FFF710FF0190FFF71EFF002803D0FFF710FF012600E00026214A136807218B43136079
:400B00001F4BE3181B78DBB21E4A13601E4A13688B4313601D4803687F229343191C1C4BE3181B7813400B4303603220FFF7E0FE182C16D9114F3B680725AB431A1C231CD1
:400B40001C3B9B082B4013433B603220FFF7D0FE3A68AA43231C183B9B082C1C1C4014433C60012E01D1FFF743FF0198FFF7CDFE02E00020FFF7EAFE03B0F0BD080F034081
:400B8000CDF1FF0F0C0F0340100F0340180F0340B4F1FF0F08B5034B1B7A5843FFF7A8FE08BDC046B8000020024B1868800F80077047C0460C020640034B1B68002B01DA47
:400BC000012000E00020704700000640014A024B1A6070476588EDAC3800034010B5041CFFF7E2FFA0421AD0144A136803218B431360134B1B689B0F01D17C2001E08620C7
:400C00004000FFF7C7FFFFF77CFE0D4A13689B009B08A40FA4071C431460FFF776FE074B1B6803229343064A1268920F01D1023200E001221343014A136010BD140206401C
:400C40000C02064010B5041CFFF75BFE064B221C1A4006490C68064B234013430B600B68FFF753FE10BDC0460404040010020640FBFBFBFF10B5244B1B685B0715D5234B79
:400C80001B685B070ED5224B5969042001401F4C22688A4322605A6982435A619B68002B00D098470420FFF7CDFF174B1B685B0518D5164B1B685B0510D5154B596980226F
:400CC000D2001140114802688A4302605969114A0A405A61DB68002B00D098478020C000FFF7B0FF084B1B685B030CD5074B1B685B0304D5064B1B69002B00D0984780202B
:400D0000C002FFF79FFF10BD10020640C800002054010020FFFBFFFF10B5041C808E002100F05EF9A268254B1B68002B02DA80235B0300E000231343214A11680B43136085
:400D4000204BE2681A60204BA2691A601F4BE2691A601F4B22691A601E4B62691A601E4A002111601D4B1960A16A1160626A1A6001221B4B1A601B4B1B68EF32A1680A400B
:400D8000402A01D0002A04D1174A13400122134304E001229343802292051343114A1360002307E09A0011498C466244802189001160013362689A42F4D810BD80033A4011
:400DC00000003A4004003A4018003A401C003A4010003A4014003A4028023A4038023A4018023A4030003A40FFFFFFDF80003A40074B1B685B0306D5054A1368802149028B
:400E00000B43136002E00122024B1A607047C04604003A4024003A40011C431E012B11D8094A0A4B1B6801201840013A002803D18B0701D5002AF4D1002804D00122034B1A
:400E40001A6000E000207047FFFFFF0310023A4010B5041E02D00020FFF778FD002C07D1A400054B9C46644420680004000C00E0002000B210BDC04680013A40F0B54746A5
:400E800080B4384B1B7A002B41D068E0EB005B1BDB00354AD318DB68DA0702D58020C00001E0802040005B0711D5EB005B1BDB002D4AD3189B68E02212011340934206D1A3
:400EC00043085B429BB262002849535203E063000021264A9952264B5843234B9846EF007E1BF6004644F16A4018490000F050F900B2A3001F4A98507B1BDB0042469A585D
:400F00007368D318A34200D10135013401E000250024002CBAD00F200021FFF72BFD0F201549FFF715FD00230AE0DA00D21AD2000D498A18116A9A000A4882185160013364
:400F4000002BF2D0074B5B7A002B08D1054C013363720548FFF7E0FE6268084B1A6004BC9046F0BD6C010020442A0000940100201027000090010020D50F000020003A40EE
:400F800008B5094B1B68002B0CDB084B1B68002BFBDB054A1368802109060B4313600A20FFF7F8FD08BDC04600003A40A0023A4008B5074B1B7ADB0706D4FFF75FFF044A01
:400FC000117A01230B431372FFF7DAFF08BDC0466C010020014B1A681A60704710023A4010B5064A13680724234000021843CB00FF2119400143116010BDC046080300402B
:40100000044B1B681F221340082BF9D0024B18607047C046080208404002084038B5041CFFF76FFC051C102C05D8104A136803218B43136016E0202C07D80C490B68032200
:401040009343023A13430B600CE0302C07D807490B6803229343013A13430B6002E00020FFF774FC281CFFF750FC38BD30001040002243088B4274D303098B425FD3030AC0
:401080008B4244D3030B8B4228D3030C8B420DD3FF22090212BA030C8B4202D31212090265D0030B8B4219D300E0090AC30B8B4201D3CB03C01A5241830B8B4201D38B038C
:4010C000C01A5241430B8B4201D34B03C01A5241030B8B4201D30B03C01A5241C30A8B4201D3CB02C01A5241830A8B4201D38B02C01A5241430A8B4201D34B02C01A524137
:40110000030A8B4201D30B02C01A5241CDD2C3098B4201D3CB01C01A524183098B4201D38B01C01A524143098B4201D34B01C01A524103098B4201D30B01C01A5241C30885
:401140008B4201D3CB00C01A524183088B4201D38B00C01A524143088B4201D34B00C01A5241411A00D20146524110467047FFE701B5002000F0FCF802BDC0460029F7D065
:4011800003B5FFF775FF0EBC4243891A1847C04603460B437FD4002243088B4274D303098B425FD3030A8B4244D3030B8B4228D3030C8B420DD3FF22090212BA030C8B42E9
:4011C00002D31212090265D0030B8B4219D300E0090AC30B8B4201D3CB03C01A5241830B8B4201D38B03C01A5241430B8B4201D34B03C01A5241030B8B4201D30B03C01AE7
:401200005241C30A8B4201D3CB02C01A5241830A8B4201D38B02C01A5241430A8B4201D34B02C01A5241030A8B4201D30B02C01A5241CDD2C3098B4201D3CB01C01A524136
:4012400083098B4201D38B01C01A524143098B4201D34B01C01A524103098B4201D30B01C01A5241C3088B4201D3CB00C01A524183088B4201D38B00C01A524143088B429C
:4012800001D34B00C01A5241411A00D201465241104670475DE0CA0F00D04942031000D34042534000229C4603098B422DD3030A8B4212D3FC22890112BA030A8B420CD359
:4012C000890192118B4208D3890192118B4204D389013AD0921100E08909C3098B4201D3CB01C01A524183098B4201D38B01C01A524143098B4201D34B01C01A5241030921
:401300008B4201D30B01C01A5241C3088B4201D3CB00C01A524183088B4201D38B00C01A5241D9D243088B4201D34B00C01A5241411A00D20146634652415B10104601D337
:401340004042002B00D54942704763465B1000D3404201B5002000F00BF802BD0029F8D003B5FFF715FF0EBC4243891A1847C0467047C0464202510A4200C30F120E0020FE
:401380007E2A0DDD9D2A0CDC802000040143952A0ADC9620821AD1400A1C58424240D0187047034A9818FBE7963A91400A1CF4E7FFFFFF7FF0B5454657464E4694464C0097
:4013C0000A03C90FE0B488460E1C1903470FC500480A6146490F01436046520A1743C0005A00640D520DDB0F8446984500D1A7E0A01A002800DC01E1002A3DD163460B43B2
:4014000000D0D4E06B0700D188E00F232B40042B00D183E02A1DAA42AD4180236D427F191B043B404646151C002B00D17CE0CC4B01349C4200D1FDE03A1CCA4BED081A4031
:401440005007640552020543120B640D002112030B0D1B056405120B1A436308C24CF60714401C43640064083443281C211C1CBC90469946A246F0BDB94B9C42C2D0802307
:401480001B041943382800DDECE01F2800DD21E120220E1C6346121A9640C340334366469640321C561EB24113430A1CC240EB1A9D42B6411D1CBA1A7642971B3B0200D4DA
:4014C00097E07A02560A002E00D1B6E0301C00F053FE031C083B1F2B00DDB7E09E40371C28262A1C361AF240161C9D403E439C4200DDB2E01C1B621C1F2A00DDD8E01F235E
:40150000291C1C1B331CA540A340D1406C1EA541D64019430D43371C002473E780231B043B40464600D082E78D4BED0878070543FA089C4232D012036405120B640D85E714
:40154000A31A002B00DC94E0002A3CD0844A944200D157E7802212041143382B00DC05E163461943481E81410022C8B24019A8429B41051CD2195B42D7183B0239D5784B8B
:4015800001349C4200D14CE10120764A6B083A4028401843D5070543570833E72B1C134348D080231B031A431203120B4EE70138002878D16346EE1AB5429B417A1A5B4253
:4015C000D71A351C7AE7021C0A4300D11AE7013B002B00D0F2E04019A8429B41CA195B42D718051CC9E7131C334300D118E1171C351C46466B0700D007E795E700287AD105
:40160000621C5205520D012A00DCFBE06246AA1A9542B6419146781A7242861A320200D493E06246551BAC458041CF1B40423E1A984648E70022002508E7281C00F09CFD84
:401640002030031C083B1F2B00DC47E7283885402E1C00259C4200DC4CE7424AE41A1640371CCFE6634619434B1E99410022CBB21DE7002B00D0F2E0601C43055B0D012BEB
:4016800000DCA4E0364B984200D121E163465C19AC429B41CF195B42FA186408D50725435708041CAEE62E4B9C4200D0EAE6A9E6211C331C1F39CB40191C202A00D182E033
:4016C0003F231C1BA64035436E1EB54100270D4300248EE7031C0E1C203BDE40202874D040231B1A99400B1C62461343591E8B4100223343DBE6002C50D0194CA24200D17B
:40170000A8E08024240440422743382800DDD9E01F2800DD39E120243E1C241AA640B0462E1CA146C640444626434C46A5406C1EA541C74035436046451BCF1BAC45894142
:4017400049427F1A141C9846B8E64B464D46334300D0B8E60026002700240025E4E6C046FF070000FFFF7FFFFFFF0F801F2B5BDC2022081CD21A9040814660469246D8401C
:401780004A4610438146524660469040021C501E8241484610430A1CDA40E7E63C1C2C4358D0C043002851D16046451BAC458041CF1B40423F1A141C98467FE68F4A944259
:4017C00000D0CAE61EE600267DE700238CE73B1C2B43002C00D0BDE0002B00D1F5E063460B4300D10EE663465B19AB428041CA19404217183A0200D4FCE0814A1D1C1740B4
:401800000134FFE53A1C2A43002C51D1002A00D085E062460A4303D00F1C65469846F1E50026002700257FE6181C0A1C2038C240202B00D1A7E04020C01A8140081C6346D7
:401840001843411E8841104300228FE66B4CA24200D05AE70F1C6546141C9846D2E5002C3AD1381C284371D0DB43002B18D0634882426BD0382B00DD9DE01F2B00DDA7E037
:4018800020203C1CC01A8440A1462C1C8246DC404846044350468540681E8541DF402543654465459B417F185B42FF18141C64E6002A19D162460A4377D00F1C65469846E4
:4018C0004E4C9FE53D436F1EBD410027EDB232E7041C0027002527E64848824236D0802000045B420743C5E762460A4349D08024ED087807FA0824032843224209D0CE0809
:40190000264206D162464F07381CD20810439846321CD200470F1743C500384C72E562460A4300D16EE56246AE1AB5429241781A5242821A100200D455E66246551BAC455C
:401940008041CA1B4042171A98465BE50F1C6546141C57E5002B34D063460B4311D08024ED087807FA08240328432242D1D0CB082342CED162464F07381CD20810431A1C6A
:40198000C7E71E4C3EE5002059E7041C3E1C203CE640341C20282BD04026301A87403D436F1EBD4100272543C5E680270026FF03124C0025B8E53D436F1EBD410027EDB281
:4019C0006EE70F1C65460D4C1CE50F1C654619E51C1C381C203CE040041C202B0CD04020C31A9F403D436F1EBD410027254357E70027D4E71D1CFCE50027F3E7FF07000048
:401A0000FFFF7FFFF0B55F4656464D464446F0B4051C061C080387B099464F00030BCC0F92469B467F0D019467D06C4B9F4236D080205B4640031843C0006B0F1843684B11
:401A400083469C4600239846EE00674400934B4649461D03C90F5B0052462D0B5B0D894600D16EE05D498B4264D080205C4940038C4600210543ED00500F0543D20063447E
:401A80004846FF187B1C9A46009B604002900B430F2B00D9ACE053489B00C3589F465B461D4300D082E00823009300239B46023300269846CBE7029B01934346022B59D129
:401AC000012400250026019B1C40444B00212D030A0D12052D0B1543434A1B0515401D436D00E4076D082543301C291C07B03CBC90469946A246AB46F0BD2B434ED05B46A1
:401B0000002B00D185E1584600F036FB021C2823291C9B1A161C5846D940083EB0400B1CB54003439B462E1C0023304F0093BF1A98468CE7514629432ED1002500220221AA
:401B40009EE75146294323D0002D00D154E1281C00F012FB031C28215046C91A1A1CC8405146083A914095400A1C05431F480021C31A85E7032B00D1C2E1012B00D06DE1AD
:401B80004446019B00251C40E4B2002300269DE700250022012173E7032171E70423009300239B4601330026984650E70C230093093B98464BE7802500242D030026074B28
:401BC00084E74B46AB46161C0193884675E7029BAB46161C019388466FE7C046FF07000001FCFFFF7C2A0000FFFF0F800DFCFFFF330C3604360C9C46331C140C1204120C0F
:401C000053439846634653439946634663430193331C41466343090C4B445B18994505D9802040028146019949440191190C039141460904090C1B045B1804932B0C9846DE
:401C4000331C2D04290C4B43604600934346654658435E43009B4D431B0C9946AE194E448446B54203D980235B029946CC44350C2B1C0398634484460593009B36041B0442
:401C80001B0CF3189C446046039058460504060C280C84465043351C81466046654344434846000C8346724314195C44A24203D98022520293465D44220CAD184A461204F4
:401CC000120C24044046A41862464A437143464360460096464670438046100C84468844E044414505D9802149028C46009961440091019803998446614499429B415B42EA
:401D000099460598434684461204120C1B049B1863449C46AB4683429B4140460A19CC44A2428941E344CC45B6415C46000C8046494276425B426418334398448C42894163
:401D4000AB459B4149425B4219430D1C009B4544EE187602E50D2E43B346049B56021E43731E9E415B46D20D324366021643DB010AD50123334076081E435B46DB071E4359
:401D80005B465B089B465746634BFB18002B5ADD720709D00F223240042A05D0321DB242B6417642B344161C5A46D20106D55A465A4B1A4080239346DB00FB18584A93429D
:401DC00034DD0124029B00251C400026554B7DE680205B460003034208D0054206D105432D032D0B4C46161C4E4B6FE65D4605432D032D0B4B4B69E6504600F0BDF9031CF2
:401E00002033272B00DCA6E65546083885400022ACE6281C00F0B0F9021C2032272A00DC75E6083885400026AB467DE65A46F608520716435A4601245502029A5B052D0B4D
:401E40005B0D144042E6384DED1B382D0ADD0124029B00251C400026002337E6019B5746029391E71F2D25DC304B321C9C466744BE405B46BB40371CEA407E1EB741134312
:401E80003B431E1C5B46EB401D1C730709D00F233340042B05D0331DB342B6417642AD191E1C2B0220D50124029B00251C40002601230BE65A461E4BDB1BDA40131C202D40
:401EC0001CD01C4A94465A466744BA40171C3E43721E96411E4307230025334007D00F2300253340042BD6D16B076D022D0B0124F6081E43029B1C400023E7E50027E6E743
:401F000080255B4601242D031D43019B2D0323401C1C2D0B034BD9E5FF030000FFFFFFFEFE070000FF07000002FCFFFF1E040000E2FBFFFF3E04000038B5041E16D0C50FEF
:401F400000D04442201C00F017F9174B1B1A0A2821DC021C211C153291400A1C0B21081AC4405B052403240B5B0D03E000250023002400220021101C24030A0D1205240BBE
:401F800014430A4A1B0514401C436400ED0764082C43211C38BD0B3884405B052403240B5B0D0022E6E7C0461E040000FFFF0F804200120E511C38B5C9B243025D0AC40FBF
:401FC000012915DDE02189008C466D071B0B62440021281C0D0D2D052B431C4D52052B40520813435B00E4075B082343191C38BD002A15D1002D1FD0281C00F0BDF80A28AF
:402000001DDC0B232A1C1B1ADA40131C021C153295400F4A1B03121A52051B0B520DD7E7002D06D080221B0B120313436D07094ACEE7084A0023CBE700220023C8E7031C52
:402040000B3B9D402B1C0025E3E7C046FFFF0F8089030000FF07000070B50B034D00440F6D0D5B0A23436C1C6405C90FC200640D012C2ADD3B4C2C19FE2C1ADC002C35DD70
:402080008001451EA841DB000343520F13435A0704D00F221A40042A00D004338022D2041A4027D00134FF2C03D09B015B0AE4B201E0FF2400235B02E4055B0A23435B0060
:4020C000C9075B080B43181C70BD002D06D113430ED100245B025B0AE4B2ECE71A43E8D08020DB0080040343FF24D0E717340CDA05230024DB08FF2CECD1002B2DD0802230
:40210000D20313435B025B0AD5E78024164824042343401B1F280DDC144CA4466544AB401C1C131CAB405D1EAB41C240234313430024ACE71E1C0E4C641BE640341C2028FE
:402140000DD00C4884466544AB401D1C2A43531E9A41131C2343002499E70023ABE70025F4E7C04680FCFFFF9E03000082FCFFFF7E030000A2FCFFFF1C2101231B049842DC
:4021800001D3000C10391B0A984201D3000A08391B09984201D30009043902A2105C40187047C04604030202010101010000000000000000014B18687047C0462C010020B6
:4021C0000E4B70B500251E1C0D4CE41AA410A54204D0AB00F35898470135F8E700F08AFC084B00251E1C084CE41AA410A54204D0AB00F35898470135F8E770BD002B000027
:40220000002B0000002B0000082B0000002310B5934203D0CC5CC4540133F9E710BD00000EB410B59DB002A9029008610B48822488604861012040421FABC881084804CB8B
:40224000A400006801938C8100F06CF80023029A13701DB010BC08BC03B01847FFFFFF7F2C010020F0B58E6885B0071C0C1C03920193B34245D390238A89DB001A423DD088
:4022800003250969236801985B1A029363695D43EB0F5D19029B6D1001331B189D4200D21D1C381C53050FD5291C00F01DFB061E13D0029A2169FFF7A9FFA289184B134086
:4022C00080221343A38111E02A1C00F065FB061E0CD1381C216900F0C1FA0C23402201203B60A38940421343A38117E0029B2661F61826606561019EED1AA560019BB3428B
:4023000000D2019E321C2068039900F092FA0020A3689B1BA36023689E19266005B0F0BD7FFBFFFFF0B59FB0029005938B890E1C171C1B0610D50B69002B0DD1402100F055
:40234000D3FA30603061002804D10C23029A01381360D0E040237361002306AD6B6120336B761033AB763C1C2378002B03D1E31B049312D003E0252BF9D00134F4E7049BC6
:402380000298311C3A1CFFF76DFF431C00D1ACE06A69049B944663446B612378002B00D1A3E00122002352426A6002A95432521801342B60EB60AB601370AB654F4F2178CA
:4023C000381C052200F02AFA002808D0C01B01278740381C2B68013418432860EEE72B68DA0604D55322202102A8121811701A0704D553222B2102A81218117022782A2A5B
:4024000001D0099B0EE0059A111D12680591002A01DB099204E05242EA60022213432B60013409E02278303A092A04D80A214B4301349B18F6E7099323782E2B18D16378F1
:402440002A2B09D1059B02341A1D1B680592002B0DDA01235B420AE0002301342278303A092A04D80A214B4301349B18F6E70793234F2178381C032200F0D0F9002807D08A
:40248000C01B40278740381C2B6801341843286021781C480622671C297600F0BFF9002812D0194B002B06D10722059B073393430833059314E005AB00930298291C321CA5
:4024C000124B00E000BF07E005AB00930298291C321C0E4B00F08AF80390039B013304D06B69039A9B186B613DE7B3890B985B0601D5012040421FB0F0BDC046BE2A00004E
:40250000C42A0000C82A00000000000065220000F7B5171C01930A698B6800900C1C934200DA131C221C3B6043321278002A01D001333B6023689B0602D53B6802333B60AD
:40254000062523681D401ED0231C43331B785A1E9341226892061CD53020E1184031C870211C5A1C45310978A21840320233D1700FE0221C0123009801991932089EB0470A
:40258000431C0ED00135E3683A689B1A9D42F0DBDAE7221C009801994332089DA847431C02D10120404220E006232068E1683A6803400025042B03D18D1AEB43DB171D4022
:4025C000A3682269934201DD9B1AED180027AF420ADA221C0123009801991A32089EB047431CDED00137F2E70020FEBDF0B58BB006920A1C43320793059004920A7E0C1CDE
:40260000109B6E2A00D1A8E011D8632A22D009D8002A00D1B2E0582A00D0C2E045310A707C4A4FE0642A1DD0692A1BD0B9E0732A00D1A7E009D86F2A29D0702A00D0B0E05B
:40264000202209680A43226037E0752A1FD0782A33D0A6E00E1C1A684236111D196013683370A1E021681A68080606D4490604D5111D19600023D55E02E0111D1960156880
:40268000002D3BDA2D23049A6D42137036E021681A68080606D4490604D51568111D1960ADB202E0111D196015685A4B227E03930A276F2A1DD108271BE0221C78214532F3
:4026C0001170554A19680392081D226818600D68100602D4500600D5ADB2D30702D520231A4322601027002D03D1202322689A432260231C002243331A7002E00A27454B57
:4027000003936368A360002B03DB0422216891432160002D02D1049E002B0ED0049E281C391CFEF72BFD039B013E5B5C281C3370391CFEF79DFC051EF1D1082F09D1236846
:40274000DB0706D563682269934202DC3023013E3370049B9B1B23612BE009681A68080607D4490605D5111D19601368A28A1A8004E0111D1960136862691A600023049E7D
:40278000236116E01A68111D196016680021301C626800F043F8002801D0801B6060636803E0261C42363270012323610023049A1370079B05980093211C069B09AAFFF7F3
:4027C000A7FE431C02D10120404221E0236905980699321C079DA847431CF4D023689B0705D4099BE068984212DA181C10E00025E368099A9B1A9D42F3DA221C0123059843
:4028000006991932079EB047431CDCD00135EFE70BB0F0BDCF2A0000E02A0000C9B28218904204D003788B4202D00130F8E70020704710B5814208D28B18984205D29B1A69
:40284000013A09D3995C8154FAE70023934203D0CC5CC4540133F9E710BD000030B500293ED004390B68002B00DAC9181D4A1368141C002B02D14B60116031E099420DD201
:4028800008680A189A4203D11368C3180B6053684B60216024E08A4203D8131C5A68002AF9D11D685C198C420BD10968691858181960904214D110685268091819605A60E2
:4028C0000EE08C4202D90C23036009E008680C18944203D114685268001908604A60596030BDC0467C010020032370B5CC1C9C430834051C0C2C01D20C2405E0002C03DA46
:402900000C2300202B6042E08C42F9D3204A1368101C191C002913D00A68121B0DD40B2A02D90A608B181FE08B4202D15A6802601BE04A685A600B1C17E00B1C4968E9E722
:40294000144E3368002B03D1281C00F04BF83060281C211C00F046F8031C421CD0D00322C61C964386420AD11C60181C07210B301A1D8843821A0AD05142995007E0311ACC
:40298000281C00F02FF8431CBAD0331CECE770BD7C01002078010020F8B5061C0C1C151C002904D1111CFFF79FFF041C18E0002A03D1FFF753FF2C1C12E000F025F8A842D8
:4029C0000ED2301C291CFFF78FFF071E07D0211C2A1CFFF71BFC301C211CFFF73FFF3C1C201CF8BD38B50023064C051C081C2360FDF7CCFC431C03D12368002B00D02B6026
:402A000038BDC046980100200B1F1A68101F002A04DA891804390B68D01804387047000000000000256400000A0D0000EEDBC9B9AA9B8E82766B60564D443B332C241D1779
:402A4000100A04000000000001000000C00E2050A80004906E000200020002000002000E00000000010000000000000000000000B00400000100000001000000F01B000077
:402A8000CE1B0000CE1B0000C21B0000B61A0000B61A0000B61B0000C21B0000B61A0000B61B0000B61A0000C21B0000BA1A0000BA1A0000BA1A0000D01D00004300232DCF
:402AC000302B2000686C4C006566674546470030313233343536373839414243444546003031323334353637383961626364656600000000F8B5C046F8BC08BC9E4670476D
:402B0000B901000005040000F8B5C046F8BC08BC9E46704791010000282B0000B0000020800000007000000000000000A00100200000E02EC05D00001800000000366E01BE
:402B4000040404000000000000000000000000000000000000000000000000000000000000000000BC2A000000000000000000000000000000000000000000000000000063
:402B8000000000000000000000000000000000000000000000000000000000000000000000000000CC00002000000000000000000000000000000000000000000000000029
:402BC00000000000000000000000000000000000000000000000000000000000000000000000000000000000000000000000000000000000000000000000000000000000D5
:402C00000000000000000000000000000000000000000000000000000000000000000000000000000000000000000000000000000000000000000000000000000000000094
:402C40000000000000000000000000000000000000000000000000000000000000000000000000000000000000000000000000000000000000000000000000000000000054
:402C80000000000000000000000000000000000000000000000000000000000000000000000000000000000000000000000000000000000000000000000000000000000014
:0200000490303A
:02000000C148F5
:0200000490402A
:200000000000000000000000000000000000000000000000000000000000000000000000E0
:0200000490501A
:0C00000000021C0011AC00011C0DD2F429
:0200000490600A
:0100000001FE
:00000001FF