:400000000010002011000000F1030000F103000008B500F087FD00F0EDF9C04638B5254C12232360182000F0F5FC80225200224B1A608023DB052149196021490A602149DC
:400040001960214821490860214919602148224908602249196022490A60224A1A60F0210901214A1160214A1A60214A214B1A600025214B1D604222204B1A607E32204B6F
:400080001A607C3A1F4B1A60033A1F4B1A6002321E4B1A600B201E4900F006FC0B2000F0F7FB1C4B1D60002000F044FD1123236038BDC046300010400003004040FF0080FA
:4000C0000803004042FF008000BFD40100050040C0FF008000BF5D001003004044FF00800403004041FF00800C03004043FF008020000080300003402800034030010040A3
:4001000018010040140100401001004004010040CD0B00000C02064008B572B6184A194B1A600822184B1A600022184B1A602C32174B1A60174A184B1A608022174B1A602E
:400140005C3A174B1A600923164A1360C3214903154A1160154A13607E33154A1360C0214903144A1160144A13600122134B1A600532134B1A60FFF751FF00F093F908BD5B
:40018000EE069900000002400004024004013F400000044036140300080004400C0004401800044000010440080104401801044000020440080204401802044000040440F4
:4001C0000804044010B5064C2378002B07D1054B002B02D0044800E000BF0123237010BDC800002000000000F424000008B5084B002B03D00748084900E000BF0748036837
:40020000002B00D108BD064B002BFBD09847F9E700000000F4240000CC000020B00000200000000008B51C4B1B68002B10D1142000F072FB00F09CF9002805D101F0E2F891
:400240000122154B1A6023E00022134B1A601FE0142000F061FB00F08BF9002815D100F0D5F9C043C0B200F0C5F90C4A1368DB431360002B02D001F02BF802E0002000F03D
:40028000F5F9FA20400000F047FB0022024B1A6000F076F908BDC046340100203001002008B50022024B1A60012001F0BBF808BD3401002008B5002000F0D8F900F0A6F959
:4002C000C043C0B200F096F9034A1368DB431360012001F00DF808BD3001002008B500F03DFE00F045FD00F035FA00F00FFA002000F0BCF9104800F06FF9104801F026F876
:400300000F4800F089FF00F0A9FE00F0CDFE00F0C3FE00F06FFE00F049FF012000F08AF9012000F07BF9012000F064F90023054A1360054A136008BD25020000A102000099
:40034000B50200003001002034010020F0B583B062B6FFF7C3FF002600F07FFA041C1F4B1B68002B33D000F003FD012000F014FD0028FAD100F02CFD051C012000F028FD39
:40038000071C301C01F08EFF154A164B01F0B4FC00900191FF20C01B01F048FF124A134B01F0AAFC021C0B1C0098019901F07CF901F0CCFF061C01F057F900F057F9FA35DF
:4003C000FA235B009D4202D9002000F033FF201C00F047FA0A2000F09FFABDE730010020666666666666EE3F9A9999999999A93FFEE7C04670B50F4E0F4D13E029686B6844
:40040000AC68002202E001C901C30432A242FAD1E868002202E0002102C304328242FAD11035013E002EE9D102F03EF8FFF78EFFFEE7C046010000000426000008B5002325
:400440000AE0032B03D89A000949505800E009489900094A88500133282BF2D9FFF75CFE0022064B1A6080229205054B1A6008BD00000000F103000000000020A8000020CD
:4004800008ED00E0064B1B68002803D080221206134301E05B005B08014A13607047C04680033A4008B503221A4B1A6080231B06194A136019491A4A11601A4A13601A49A5
:4004C0001A4A11601A491B4A11601B4A13601B491B4A11601B491C4A116030211B4A1160802189021A4A11601A4A13608023DB02194A1360194A1360194A1A4B1A60F12221
:40050000194B1A600022194B1A600120FFF7BAFF08BDC0460021024000003040040800008000304000003140040000228000314080000801880031400000384010000001E0
:4005400010003840200000021800384060003840C001384000003A4000033A4040033A400100008000023F4004023F40000E3F40024B18680007C00F7047C04604000440C0
:40058000034A1068082318401060C008C0B2704710000440014B18647047C0460000002010B5041C00F059F9044A1368C0218B43A4011C43146000F054F910BD00E400E0B4
:4005C0000122014B1A60704700E100E00122014B1A60704780E100E010B5041CFFF7F6FF201CFFF7D7FF0320FFF7DAFFFFF7E8FF10BDC04604490A68BF231A4080017F3B09
:40060000184010430860704700010440024B18684006C00F7047C0460401044004490A68BF231A4080017F3B18401043086070470002044004490A68EF231A400001DF3B37
:400640001840104308607047000104400004000C014B18607047C046080101400004000C014B18607047C046140101400004000C014B18607047C0460C01014038B5041CBD
:400680000D1C00F0EAF8AC40024B1C6000F0E9F838BDC0460800014008B500F0DEF8064A116801230B43136000F0DBF801201821FFF7E4FF08BDC04600000140014B18607E
:4006C0007047C0463801014010B50D4C8023DB042360236823600020FFF7B8FF236823600C22084B1A600120FFF7E8FF3122064B1A60FF20FFF7B2FF0020FFF7B7FF10BD41
:4007000000010140240101402801014008B5064B1B78002B04D1FFF7D7FF0122024B1A70FFF7BAFF08BDC046E400002008B500F073F808BD08B500F01DF808BD08B5044A53
:400740001368802109060B431360FFF7EFFF08BD0000084008B5064B1B78002B04D1FFF7E9FF0122024B1A70FFF7E8FF08BDC046E600002010B5154A154B1A600023154AF5
:4007800013600121144A1160144A15480260072414480460144803601448016014490A60144A13600421144A1160144A1360144A1360144A1360144A1360144A1360144A52
:4007C00013601268134B1A8010BDC0460C0000020000084040000840480008400700008000030840040308401003084044000840000208400402084050000840880E0840BD
:40080000C80E0840480F0840080F0840C80F0840880F0840E8000020064A1168064B0B40902109040B431360044B1A88044B1A607047C04600000240FFFF0FFFE8000020E5
:40084000880F0840000000000230800803D001300238FCD1C046C0467047EFF3108072B6704780F310887047024A1168024B0B401360704700000640FFFFFFBF034B1868A7
:400880008023DB05184000D001207047000006401F2318401E3B8340181C014B1860704700E100E001BE704738B5041C0D1C182802D90020FFF7F6FFA400034B9C466444FB
:4008C0002068256038BDC0464000002070B5041C0E1E032E02D90020FFF7E4FF182C02D90020FFF7DFFF03252540ED000635FFF7B4FFA408A400074B9C46644423680322CD
:40090000AA409343AE40351C1D432560FFF7A9FF70BDC04600E400E010B5041C06E0084B1868FFF791FF074B9C46644480231B029C42F4D8024B58686043FFF785FF10BDDD
:40094000B40000200080FFFF30B583B000F0E0F8002848D0FFF781FF041C244B1B6807221A409200131C1833214A12681207920FD3401A1C1F4B19681F4B19401F4B534358
:400980008020C00184466344DB0B013B5B055B0D0B43A02149031943192A02D8184A13430BE0184BD31818781A3A174B9B5CC318FF2B00D9FF239B050B430E4A1360134D60
:4009C0002B680193302000F033FD114A13688021C9050B4313601420FFF79EFF019B2B60201CFFF73EFF03B030BDC046080F0340280003400800064000F800C040420F00FB
:400A00000000D43FCDF1FF0FF82400003000104000000640F0B583B0041E182C0BD01C2809D0202807D0242805D0282803D02C2801D0302849D1FFF710FF0190FFF71EFF1C
:400A4000002803D0FFF710FF012600E00026214A136807218B4313601F4BE3181B78DBB21E4A13601E4A13688B4313601D4803687F229343191C1C4BE3181B7813400B4364
:400A800003603220FFF7E0FE182C16D9114F3B680725AB431A1C231C1C3B9B082B4013433B603220FFF7D0FE3A68AA43231C183B9B082C1C1C4014433C60012E01D1FFF72A
:400AC00043FF0198FFF7CDFE02E00020FFF7EAFE03B0F0BD080F0340CDF1FF0F0C0F0340100F0340180F0340B4F1FF0F08B5034B1B7A5843FFF7A8FE08BDC046B4000020A1
:400B0000024B1868800F80077047C0460C020640034B1B68002B01DA012000E00020704700000640014A024B1A6070476588EDAC3800034010B5041CFFF7E2FFA0421AD07A
:400B4000144A136803218B431360134B1B689B0F01D17C2001E086204000FFF7C7FFFFF77CFE0D4A13689B009B08A40FA4071C431460FFF776FE074B1B6803229343064A80
:400B80001268920F01D1023200E001221343014A136010BD140206400C02064010B5041CFFF75BFE064B221C1A4006490C68064B234013430B600B68FFF753FE10BDC0469E
:400BC0000404040010020640FBFBFBFF10B5244B1B685B0715D5234B1B685B070ED5224B5969042001401F4C22688A4322605A6982435A619B68002B00D098470420FFF756
:400C0000CDFF174B1B685B0518D5164B1B685B0510D5154B59698022D2001140114802688A4302605969114A0A405A61DB68002B00D098478020C000FFF7B0FF084B1B689A
:400C40005B030CD5074B1B685B0304D5064B1B69002B00D098478020C002FFF79FFF10BD10020640C4000020EC000020FFFBFFFF10B5041C808E002100F088F9A2682B4B72
:400C80001B68002B02DA80235B0300E000231343274A11680B431360264BE2681A60264BA2691A60254BE2691A60254B22691A60244B62691A60244A00211160234B196035
:400CC000A16A1160626A1A600122214B1A60214B1B68EF32A1680A40402A01D0002A04D11D4A13400122134304E001229343802292051343174A1360002113E023685A1808
:400D00009200164BD058164B0340164812581343D20101D5144A13408A001448844662441360013163688B42E8D810BD80033A4000003A4004003A4018003A401C003A403F
:400D400010003A4014003A4028023A4038023A4018023A4030003A40FFFFFFDF102500000037008018250000FFFEFFFF80003A40074B1B685B0306D5054A13688021490207
:400D80000B43136002E00122024B1A607047C04604003A4024003A40011C431E012B11D8094A0A4B1B6801201840013A002803D18B0701D5002AF4D1002804D00122034B9B
:400DC0001A6000E000207047FFFFFF0310023A4010B5041E012C02D90020FFF763FD012C07D8A400044B9C46644420680004000C00E0002000B210BD80013A40F0B5474604
:400E000080B4424B1B7A002B55D07CE0A300404A9A5893050AD5FB00DB1BDB003D49CB18DB68DB0705D58020C00004E08020400101E080204000D3051DD4FB00DB1BDB006B
:400E4000344AD318DB685B0710D5FB00DB1BDB00D3189B68E02212011340934206D143085B429BB262002C49535208E063000021294A995203E063000021274A9952274B01
:400E80005843244B9846FE00F51BED004544E96A4018490000F0F6FA00B2A300204A9850F31BDB0042469A586B68D318A34200D10137013401E000270024012CA6D90F2000
:400EC0000021FFF703FD0F201649FFF7EDFC00230AE0DA00D21AD2000E498A18116A9A000A48821851600133002BF2D0074B5B7A002B08D1054C013363720648FFF7B8FE7E
:400F00006268094B1A6004BC9046F0BD040100201025000020250000400100201027000038010020810F000020003A4008B5094B1B68002B0CDB084B1B68002BFBDB054A50
:400F40001368802109060B4313600A20FFF7CEFD08BDC04600003A40A0023A4008B5074B1B7ADB0706D4FFF749FF044A117A01230B431372FFF7DAFF08BDC046040100200C
:400F8000014B1A681A60704710023A4010B5064A13680724234000021843CB00FF2119400143116010BDC046080300400323064A136080210906054A11600421044A1160D7
:400FC000044A13607047C046100100200000304004003040080F3040044A1168044B1B680B43802109010B4313607047040030401001002008B5064B1B79002B04D1FFF790
:40100000D5FF0122024B1A71FFF7E6FF08BDC046100100200323064A136080210906054A11600421044A1160044A13607047C046180100200000314008003140140F314098
:40104000044A1168044B1B680B43802109010B4313607047080031401801002008B5064B1B79002B04D1FFF7D5FF0122024B1A71FFF7E6FF08BDC04618010020044A1368A5
:40108000802109060B431360F022024B1A60704700023F4008023F40024A116801230B431360704708023F4008B5064B1B78002B04D10122034B1A70FFF7E0FFFFF7ECFFE9
:4010C00008BDC0462001002004490868044B1B680322134003430B607047C0460400314024010020F0B5184E184A33681A400004F0231B03184010433060154A944617682B
:40110000144A174003401F43420C07210A4003242040431E104D50008018C01880004259F0231B0513401F4363461F6033685A0C114023405A1E4B005B189B189B005B5978
:401140001C40064B1C60F0BD24010020FFFFF0FF04003140FFFFF0F058250000080F314008B503210D4B19600D4A136880200006034313600B4B18680B4A02401A601A68C3
:401180008020000102431A601B68194201D0FFF79BFF0020FFF7A6FF08BDC046240100200000314004003140FBF7FFFF08B5064B1B79002B04D1FFF7D3FF0122024B1A718A
:4011C000FFF782FF08BDC046240100208C23014AD05070470000002010B5041CFFF73DFB044A13689B009B08A4071C431460FFF738FB10BD10E400E080221203014B1A6098
:401200007047C04600E100E080221203014B1A607047C04680E100E010B5041CFFF7F4FF201CFFF7D3FF0320FFF7D6FFFFF7E4FF10BDC0460004000C014B18607047C046B8
:40124000880101400004000C014B18607047C0469401014038B5041C0D1CFFF7FEFAAC40024B1C60FFF7FDFA38BDC0460800014008B5FFF7F2FA064A116804230B431360E3
:40128000FFF7EFFA04201821FFF7E4FF08BDC04600000140014B18607047C046B801014008B581229204074B1A600C22064B1A600120FFF7EFFF0548FFF7C4FF0020FFF7B6
:4012C000B9FF08BD80010140A401014060EA000008B5064B1B78002B04D1FFF7E1FF0122024B1A70FFF7C4FF08BDC0462C010020014B18607047C046B00101408823014AD4
:40130000D05070470000002010B5041CFFF7A5FA044A1168044B0B40A4051C431460FFF7A0FA10BD10E400E0FFFF3FFF8022D202014B1A607047C04600E100E08022D202C2
:40134000014B1A607047C04680E100E010B5041CFFF7F4FF201CFFF7D1FF0320FFF7D4FFFFF7E4FF10BDC0460004000C014B18607047C046480101400004000C014B186052
:401380007047C0465401014038B5041C0D1CFFF764FAAC40024B1C60FFF763FA38BDC0460800014008B5FFF758FA064A116802230B431360FFF755FA02201821FFF7E4FFD7
:4013C00008BDC04600000140014B18607047C0467801014008B581229204084B1A600C22074B1A600120FFF7EFFFFA20C000FFF7C3FF0020FFF7B8FF08BDC0464001014038
:401400006401014008B5064B1B78002B04D1FFF7E1FF0122024B1A70FFF7C4FF08BDC0462D010020014B18607047C0467001014038B5041CFFF711FA051C102C05D8104AEE
:40144000136803218B43136016E0202C07D80C490B6803229343023A13430B600CE0302C07D807490B6803229343013A13430B6002E00020FFF716FA281CFFF7F2F938BDA8
:401480003000104003460B437FD4002243088B4274D303098B425FD3030A8B4244D3030B8B4228D3030C8B420DD3FF22090212BA030C8B4202D31212090265D0030B8B42CB
:4014C00019D300E0090AC30B8B4201D3CB03C01A5241830B8B4201D38B03C01A5241430B8B4201D34B03C01A5241030B8B4201D30B03C01A5241C30A8B4201D3CB02C01A50
:401500005241830A8B4201D38B02C01A5241430A8B4201D34B02C01A5241030A8B4201D30B02C01A5241CDD2C3098B4201D3CB01C01A524183098B4201D38B01C01A5241B5
:4015400043098B4201D34B01C01A524103098B4201D30B01C01A5241C3088B4201D3CB00C01A524183088B4201D38B00C01A524143088B4201D34B00C01A5241411A00D206
:4015800001465241104670475DE0CA0F00D04942031000D34042534000229C4603098B422DD3030A8B4212D3FC22890112BA030A8B420CD3890192118B4208D3890192110D
:4015C0008B4204D389013AD0921100E08909C3098B4201D3CB01C01A524183098B4201D38B01C01A524143098B4201D34B01C01A524103098B4201D30B01C01A5241C3083B
:401600008B4201D3CB00C01A524183088B4201D38B00C01A5241D9D243088B4201D34B00C01A5241411A00D20146634652415B10104601D34042002B00D5494270476346AC
:401640005B1000D3404201B5002000F00BF802BD0029F8D003B5FFF715FF0EBC4243891A1847C0467047C0464202510A4200C30F120E00207E2A0DDD9D2A0CDC8020000483
:401680000143952A0ADC9620821AD1400A1C58424240D0187047034A9818FBE7963A91400A1CF4E7FFFFFF7FF0B5454657464E4694464C000A03C90FE0B488460E1C1903EC
:4016C000470FC500480A6146490F01436046520A1743C0005A00640D520DDB0F8446984500D1A7E0A01A002800DC01E1002A3DD163460B4300D0D4E06B0700D188E00F23DB
:401700002B40042B00D183E02A1DAA42AD4180236D427F191B043B404646151C002B00D17CE0CC4B01349C4200D1FDE03A1CCA4BED081A405007640552020543120B640DA5
:40174000002112030B0D1B056405120B1A436308C24CF60714401C43640064083443281C211C1CBC90469946A246F0BDB94B9C42C2D080231B041943382800DDECE01F2823
:4017800000DD21E120220E1C6346121A9640C340334366469640321C561EB24113430A1CC240EB1A9D42B6411D1CBA1A7642971B3B0200D497E07A02560A002E00D1B6E0BA
:4017C000301C00F053FE031C083B1F2B00DDB7E09E40371C28262A1C361AF240161C9D403E439C4200DDB2E01C1B621C1F2A00DDD8E01F23291C1C1B331CA540A340D1409F
:401800006C1EA541D64019430D43371C002473E780231B043B40464600D082E78D4BED0878070543FA089C4232D012036405120B640D85E7A31A002B00DC94E0002A3CD047
:40184000844A944200D157E7802212041143382B00DC05E163461943481E81410022C8B24019A8429B41051CD2195B42D7183B0239D5784B01349C4200D14CE10120764A04
:401880006B083A4028401843D5070543570833E72B1C134348D080231B031A431203120B4EE70138002878D16346EE1AB5429B417A1A5B42D71A351C7AE7021C0A4300D163
:4018C0001AE7013B002B00D0F2E04019A8429B41CA195B42D718051CC9E7131C334300D118E1171C351C46466B0700D007E795E700287AD1621C5205520D012A00DCFBE0CB
:401900006246AA1A9542B6419146781A7242861A320200D493E06246551BAC458041CF1B40423E1A984648E70022002508E7281C00F09CFD2030031C083B1F2B00DC47E791
:40194000283885402E1C00259C4200DC4CE7424AE41A1640371CCFE6634619434B1E99410022CBB21DE7002B00D0F2E0601C43055B0D012B00DCA4E0364B984200D121E160
:4019800063465C19AC429B41CF195B42FA186408D50725435708041CAEE62E4B9C4200D0EAE6A9E6211C331C1F39CB40191C202A00D182E03F231C1BA64035436E1EB54145
:4019C00000270D4300248EE7031C0E1C203BDE40202874D040231B1A99400B1C62461343591E8B4100223343DBE6002C50D0194CA24200D1A8E08024240440422743382851
:401A000000DDD9E01F2800DD39E120243E1C241AA640B0462E1CA146C640444626434C46A5406C1EA541C74035436046451BCF1BAC45894149427F1A141C9846B8E64B467E
:401A40004D46334300D0B8E60026002700240025E4E6C046FF070000FFFF7FFFFFFF0F801F2B5BDC2022081CD21A9040814660469246D8404A4610438146524660469040C2
:401A8000021C501E8241484610430A1CDA40E7E63C1C2C4358D0C043002851D16046451BAC458041CF1B40423F1A141C98467FE68F4A944200D0CAE61EE600267DE70023DD
:401AC0008CE73B1C2B43002C00D0BDE0002B00D1F5E063460B4300D10EE663465B19AB428041CA19404217183A0200D4FCE0814A1D1C17400134FFE53A1C2A43002C51D1B8
:401B0000002A00D085E062460A4303D00F1C65469846F1E50026002700257FE6181C0A1C2038C240202B00D1A7E04020C01A8140081C63461843411E8841104300228FE691
:401B40006B4CA24200D05AE70F1C6546141C9846D2E5002C3AD1381C284371D0DB43002B18D0634882426BD0382B00DD9DE01F2B00DDA7E020203C1CC01A8440A1462C1C3C
:401B80008246DC404846044350468540681E8541DF402543654465459B417F185B42FF18141C64E6002A19D162460A4377D00F1C654698464E4C9FE53D436F1EBD410027F6
:401BC000EDB232E7041C0027002527E64848824236D0802000045B420743C5E762460A4349D08024ED087807FA0824032843224209D0CE08264206D162464F07381CD208EB
:401C000010439846321CD200470F1743C500384C72E562460A4300D16EE56246AE1AB5429241781A5242821A100200D455E66246551BAC458041CA1B4042171A98465BE54D
:401C40000F1C6546141C57E5002B34D063460B4311D08024ED087807FA08240328432242D1D0CB082342CED162464F07381CD20810431A1CC7E71E4C3EE5002059E7041C23
:401C80003E1C203CE640341C20282BD04026301A87403D436F1EBD4100272543C5E680270026FF03124C0025B8E53D436F1EBD410027EDB26EE70F1C65460D4C1CE50F1C89
:401CC000654619E51C1C381C203CE040041C202B0CD04020C31A9F403D436F1EBD410027254357E70027D4E71D1CFCE50027F3E7FF070000FFFF7FFFF0B55F4656464D4600
:401D00004446F0B4051C061C080387B099464F00030BCC0F92469B467F0D019467D06C4B9F4236D080205B4640031843C0006B0F1843684B83469C4600239846EE006744BE
:401D400000934B4649461D03C90F5B0052462D0B5B0D894600D16EE05D498B4264D080205C4940038C4600210543ED00500F0543D20063444846FF187B1C9A46009B604069
:401D800002900B430F2B00D9ACE053489B00C3589F465B461D4300D082E00823009300239B46023300269846CBE7029B01934346022B59D1012400250026019B1C40444B86
:401DC00000212D030A0D12052D0B1543434A1B0515401D436D00E4076D082543301C291C07B03CBC90469946A246AB46F0BD2B434ED05B46002B00D185E1584600F036FB74
:401E0000021C2823291C9B1A161C5846D940083EB0400B1CB54003439B462E1C0023304F0093BF1A98468CE7514629432ED10025002202219EE75146294323D0002D00D14F
:401E400054E1281C00F012FB031C28215046C91A1A1CC8405146083A914095400A1C05431F480021C31A85E7032B00D1C2E1012B00D06DE14446019B00251C40E4B20023C3
:401E800000269DE700250022012173E7032171E70423009300239B4601330026984650E70C230093093B98464BE7802500242D030026074B84E74B46AB46161C0193884604
:401EC00075E7029BAB46161C019388466FE7C046FF07000001FCFFFFA0250000FFFF0F800DFCFFFF330C3604360C9C46331C140C1204120C53439846634653439946634633
:401F000063430193331C41466343090C4B445B18994505D9802040028146019949440191190C039141460904090C1B045B1804932B0C9846331C2D04290C4B43604600939A
:401F40004346654658435E43009B4D431B0C9946AE194E448446B54203D980235B029946CC44350C2B1C0398634484460593009B36041B041B0CF3189C44604603905846D2
:401F80000504060C280C84465043351C81466046654344434846000C8346724314195C44A24203D98022520293465D44220CAD184A461204120C24044046A41862464A431D
:401FC0007143464360460096464670438046100C84468844E044414505D9802149028C46009961440091019803998446614499429B415B4299460598434684461204120CA1
:402000001B049B1863449C46AB4683429B4140460A19CC44A2428941E344CC45B6415C46000C8046494276425B426418334398448C428941AB459B4149425B4219430D1CEA
:40204000009B4544EE187602E50D2E43B346049B56021E43731E9E415B46D20D324366021643DB010AD50123334076081E435B46DB071E435B465B089B465746634BFB188C
:40208000002B5ADD720709D00F223240042A05D0321DB242B6417642B344161C5A46D20106D55A465A4B1A4080239346DB00FB18584A934234DD0124029B00251C40002663
:4020C000554B7DE680205B460003034208D0054206D105432D032D0B4C46161C4E4B6FE65D4605432D032D0B4B4B69E6504600F0BDF9031C2033272B00DCA6E65546083881
:4021000085400022ACE6281C00F0B0F9021C2032272A00DC75E6083885400026AB467DE65A46F608520716435A4601245502029A5B052D0B5B0D144042E6384DED1B382D5C
:402140000ADD0124029B00251C400026002337E6019B5746029391E71F2D25DC304B321C9C466744BE405B46BB40371CEA407E1EB74113433B431E1C5B46EB401D1C7307AE
:4021800009D00F233340042B05D0331DB342B6417642AD191E1C2B0220D50124029B00251C40002601230BE65A461E4BDB1BDA40131C202D1CD01C4A94465A466744BA4003
:4021C000171C3E43721E96411E4307230025334007D00F2300253340042BD6D16B076D022D0B0124F6081E43029B1C400023E7E50027E6E780255B4601242D031D43019B1A
:402200002D0323401C1C2D0B034BD9E5FF030000FFFFFFFEFE070000FF07000002FCFFFF1E040000E2FBFFFF3E04000038B5041E16D0C50F00D04442201C00F017F9174B8F
:402240001B1A0A2821DC021C211C153291400A1C0B21081AC4405B052403240B5B0D03E000250023002400220021101C24030A0D1205240B14430A4A1B0514401C436400CD
:40228000ED0764082C43211C38BD0B3884405B052403240B5B0D0022E6E7C0461E040000FFFF0F804200120E511C38B5C9B243025D0AC40F012915DDE02189008C466D07B2
:4022C0001B0B62440021281C0D0D2D052B431C4D52052B40520813435B00E4075B082343191C38BD002A15D1002D1FD0281C00F0BDF80A281DDC0B232A1C1B1ADA40131CAD
:40230000021C153295400F4A1B03121A52051B0B520DD7E7002D06D080221B0B120313436D07094ACEE7084A0023CBE700220023C8E7031C0B3B9D402B1C0025E3E7C046DB
:40234000FFFF0F8089030000FF07000070B50B034D00440F6D0D5B0A23436C1C6405C90FC200640D012C2ADD3B4C2C19FE2C1ADC002C35DD8001451EA841DB000343520F7D
:4023800013435A0704D00F221A40042A00D004338022D2041A4027D00134FF2C03D09B015B0AE4B201E0FF2400235B02E4055B0A23435B00C9075B080B43181C70BD002D9D
:4023C00006D113430ED100245B025B0AE4B2ECE71A43E8D08020DB0080040343FF24D0E717340CDA05230024DB08FF2CECD1002B2DD08022D20313435B025B0AD5E78024EF
:40240000164824042343401B1F280DDC144CA4466544AB401C1C131CAB405D1EAB41C240234313430024ACE71E1C0E4C641BE640341C20280DD00C4884466544AB401D1C80
:402440002A43531E9A41131C2343002499E70023ABE70025F4E7C04680FCFFFF9E03000082FCFFFF7E030000A2FCFFFF1C2101231B04984201D3000C10391B0A984201D3A5
:40248000000A08391B09984201D30009043902A2105C40187047C046040302020101010100000000000000000E4B70B500251E1C0D4CE41AA410A54204D0AB00F35898470D
:4024C0000135F8E700F08CF8084B00251E1C084CE41AA410A54204D0AB00F35898470135F8E770BDEC250000EC250000EC250000F425000000000000EEDBC9B9AA9B8E82DD
:40250000766B60564D443B332C241D17100A0400001500000002000064006501720040000000000002000000C02E2010E80004902E010700020002000002000E000000C02A
:40254000030000000000000000000000B004000001000000030000000200000F0200000F0200000F020000080200000902000009010000030200000502000004010000003B
:402580000200000202000003010000000200000002000001010000000100000001000000E41E0000C21E0000C21E0000B61E0000AA1D0000AA1D0000AA1E0000B61E000049
:4025C000AA1D0000AA1E0000AA1D0000B61E0000AE1D0000AE1D0000AE1D0000C4200000F8B5C046F8BC08BC9E467047ED0100003D040000F8B5C046F8BC08BC9E467047B1
:40260000C501000018260000B0000020180000008000000000000000000000000000E02EC05D00001800000000366E0104040400000000000000000000000000000000003A
:40264000000000000000000000000000000000000000000000000000000000000000000000000000000000000000000000000000000000000000000000000000000000005A
:40268000000000000000000000000000000000000000000000000000000000000000000000000000000000000000000000000000000000000000000000000000000000001A
:4026C00000000000000000000000000000000000000000000000000000000000000000000000000000000000000000000000000000000000000000000000000000000000DA
:402700000000000000000000000000000000000000000000000000000000000000000000000000000000000000000000000000000000000000000000000000000000000099
:0200000490303A
:02000000F8C046
:0200000490402A
:200000000000000000000000000000000000000000000000000000000000000000000000E0
:0200000490501A
:0C00000000021C0011AC00011C0C0A6C7A
:0200000490600A
:0100000001FE
:00000001FF